:0200000270008C
:10100000000001205D130700451307004713070088
:10101000491307004B1307004D13070000000000A1
:10102000000000000000000000000000F93F070081
:101030005113070000000000531307005513070069
:1010400057130700571307005713070057130700DC
:1010500057130700571307005713070057130700CC
:1010600057130700571307005713070057130700BC
:1010700057130700571307005713070057130700AC
:10108000B5610700571307005713070057130700F0
:101090005713070057130700C590070057130700A1
:1010A000571307005713070057130700571307007C
:1010B000571307005713070000000000000000004E
:1010C000571307005713070057130700571307005C
:1010D000015B0700571307005713070000000000CB
:1010E0000000000000000000000000000000000000
:1010F00000000000000000000000000000000000F0
:1011000000000000000000000000000000000000DF
:1011100000000000000000000000000000000000CF
:1011200000000000000000000000000000000000BF
:1011300000000000000000000000000000000000AF
:10114000000000000000000000000000000000009F
:10115000000000000000000000000000000000008F
:10116000000000000000000000000000000000007F
:10117000000000000000000000000000000000006F
:10118000000000000000000000000000000000005F
:10119000000000000000000000000000000000004F
:1011A000000000000000000000000000000000003F
:1011B000000000000000000000000000000000002F
:1011C000000000000000000000000000000000001F
:1011D000000000000000000000000000000000000F
:1011E00000000000000000000000000000000000FF
:1011F00000000000000000000000000000000000EF
:10120000314932480A1A02D0072291438D463049AB
:1012100030480A1A06D00722914381F30988022236
:1012200082F314882C482D492D4A00F03CF82D48B3
:101230002D492E4A00F037F82D482E492E4A00F04D
:1012400032F82E482E492F4A00F02DF82E482F490B
:101250002F4A00F028F82F482F49304A00F023F891
:101260002F483049304A00F01EF8304830490022FB
:1012700000F024F82F483049002200F01FF82F4AD0
:1012800090471F481F49884205D00268043003B4C4
:10129000904703BCF7E700208646EC46002000217B
:1012A000274A9047FEE7884207D0521A05D00378B4
:1012B00001300B700131013AF9D17047884202D0F8
:1012C00002700130FAE770470000012000F80020AA
:1012D000000001200000012060CD07007C590020A3
:1012E000D0590020B8130700B81307004C96070028
:1012F00060CD07007C5900207C5900204C970700E6
:101300004C9707004C9707004C9707004C97070035
:101310004C9707004C9707004C9707005ECD0700DD
:10132000B4CD0700D0590020D0590020D05900205A
:10133000E0A10020E0A10020E0A10020851307002B
:1013400055430700FEE7FEE7FEE7FEE7FEE7FEE7A0
:10135000FEE7FEE7FEE7FEE700F002B8FFF7FCBF9E
:101360000F484FF00701884385460E4880470E48D6
:10137000016841F470010160BFF34F8FBFF36F8FBD
:10138000FFF73EBF09480A490A4A884207D0521A65
:1013900005D0037801300B700131013AF9D1704763
:1013A00000000120C162070088ED00E038970700C7
:0813B000685900207C5900205F
:1013B8007047000007B5044B0093044A402300F02F
:1013C80032F803B05DF804FBD9130700D1590020A7
:1013D8002DE9F84388461446B2B10F4B0F4E03254A
:1013E800002743F00109224608EB0701002004F01A
:1013F80039F80744241A48B933782BB14FF47A40A6
:10140800C847013D02D13570BDE8F8830123337028
:10141800002CE8D1F8E700BF50970700D05900200A
:10142800704704F04FB8F0B595B01D46164608460B
:101438000C4601F09AFD1A9B0D93CDE9086500252D
:101448002B460C2205A920460A958DF82C500C95A0
:1014580001F0B2FD079B0293069B03939DF814309D
:101468008DF8115003F00302012A1DD1BDF8142094
:10147800059DC3F3C203C2F383168DF81030B20082
:101488000C230EA9204601F097FDC5F3952508AB5E
:101498000093324602AB0EA9284600F037FC2046DE
:1014A80001F067FD15B0F0BD022AF8D1BDF816505D
:1014B800C3F3C203C5F389158DF810300C27082D26
:1014C8002E4628BF08263B4632460EA9204601F084
:1014D80073FDAD1B08AB02AA31460EA8374400F0D5
:1014E80079FC002DEBD1DAE708B5FFF79AFF07483A
:1014F800042100F047FB002803DA0549412000F0E9
:1015080011FE044B01225A7108BD00BFF89607006E
:10151800649707007C590020037813F0040216D062
:1015280003F00303012B03D0022B09D001207047DD
:101538000A6800880332C0F3831002440A60F5E7A2
:101548000B684288033303EB92130B60EEE71046F7
:10155800704700002DE9F04FDFF834A187B00F463F
:1015680000230446C61C0DF1070015468DF8073008
:1015780000F06CFDDAF804203A60DAF80830424FDF
:1015880003F580639B1AA7F10409A7F10808B34281
:101598001BD30020002D72D004F00F039B0143F0F1
:1015A800050363F30F00DAF80430C3F309020332CA
:1015B80033444AF822009DF80700CAF8043000F0C6
:1015C80075FD012007B0BDE8F08F0121384600F015
:1015D8009AFE484600F0B2FE404600F0AFFEDAF848
:1015E80008000290C0F3090003300AEB800002A94A
:1015F800FFF792FF029B834610B1C3F30900F3E79C
:10160800C3F309020AEB8202591CD2680392C1F3A0
:1016180009010AEB810102F003020333012AC968B8
:1016280002931ED0022A24D1BDF80E20C2F38912DB
:1016380003324FEA114B03EB92030293404600F04A
:1016480080FE10B1029BCAF808305946384600F0AF
:101658005AFEDAF80830DAF8042003F580639B1A9A
:1016680095E7BDF80C20C2F383124FEA114B1344DF
:10167800E3E706494FF4C27000F054FDDEE7A40525
:1016880044F006008FE700BF006B0020D0970700EA
:10169800E45A002038B5054608468DB1094C0023A8
:1016A800237004F5805400F0F1FB0748E56001F071
:1016B80015FC044610B9054801F092FC204638BDD7
:1016C8000724FBE7E45A0020D09607003C9807005F
:1016D80030B50A4C71B10A4A0A49121BD2080023D4
:1016E8009A4201D1002030BD31F82350854202D002
:1016F8000133F5E7034654F83300F4E76096070032
:10170800D096070068590020094B013903EBC00047
:10171800032909D8DFE801F00A020406042070470B
:101728000079704740797047002070470220704761
:1017380060960700034BD3E90130C31A5842584159
:10174800704700BFE45A00202DE9F04387B0FFF747
:10175800F1FF0646002840F0F8807D4C04F58055DE
:10176800A861BFF34F8FA3680293C3F30903033340
:1017780004EB830002A9FFF7CFFE029B48B1AA69D8
:101788003AB962689A42F0D8A260304607B0BDE81C
:10179800F083591CC1F3090104EB8101C3F3090269
:1017A800C968049104EB8202991CD2680392C1F3C0
:1017B8000901033304EB8101029302F00303C968B2
:1017C8000591022B4ED1BDF80E306248C3F389183B
:1017D8004746502F28BF502707F10C0167F38F1396
:1017E800C1F30901ADF80E3001F090FB0646002860
:1017F80000F0978001F0B9FB0C220DEB02010023E9
:10180800304601F0C5FB0299CB43C3F3090301330A
:10181800C1F309010331B7EB830F4FEA830204EBED
:1018280081011CD95FFA82F90C23A7EB090730461E
:1018380001F0AEFBFFB209F10C03474903F0FC03CA
:101848003A46304601F0A4FB029B08F1030803EB7B
:1018580098030293AB69002B3CD12F694DE00C2310
:101868003A46EEE7012B5CD1BDF80C303948C3F39A
:101878008311062928BF062161F38913033101F07A
:101888000F018900ADF80C3001F040FB0646002836
:1018980047D001F06AFB0C2200230DEB0201304611
:1018A80001F076FB0027BDF80C20C2F38312BB00C1
:1018B800974203F10C03CDD202994A1CC1F30901E6
:1018C8000331029204EB81010422304601F060FBEF
:1018D8000137E8E7304601F04CFBFFF72BFF80F0BB
:1018E8000100C6B251E7FB685B7923B13B6831461A
:1018F8001B6838469847FB681F68002FF3D13046AD
:1019080001F037FB0DF107008DF8077000F09EFB22
:10191800AB690BB9029BA3609DF8070000F0C6FBFA
:10192800DBE72C6954B90D4B0D480E49C01AC008A5
:10193800000440F0020000F07DF8CEE7236820465E
:101948009B689847E3681C68ECE700261DE700BF22
:10195800E45A0020D0960700F05A0020609607004D
:1019680060960700249807002DE9F34704460F46C0
:10197800914601A9012218469846FFF7EBFD274E2C
:10198800002838D0019D0023E81C434503EB0001E3
:101998003AD12348002100F07BFC80F3100A214B48
:1019A800214A4FEA14499B1AB9EBD30F04D31F49B4
:1019B80040F2A91000F0B6FB6B1CC3F3090306EB59
:1019C800830349EA0A40D860194BDB689847AB1C87
:1019D800C3F30903E40006EB830304F03804C5F3FA
:1019E800090544F00104D860033544EA881343EA42
:1019F800872346F8253033781BB1FFF7A5FE00286A
:101A0800FBD102B0BDE8F087C1F3090106EB810103
:101A180059F82320CA600133B7E700BFE45A002011
:101A2800006B0020D096070060960700D09707004B
:101A3800E46A002000231A46FFF796BF07B5012382
:101A4800019201AAFFF790FF03B05DF804FB07B508
:101A5800CDE9002302236A46FFF786FF03B05DF84D
:101A680004FB1FB5CDE90123069B039301AA0323B9
:101A7800FFF77AFF05B05DF804FB1FB5CDE9002339
:101A8800069B0293079B03936A460423FFF76CFFA8
:101A980005B05DF804FB7FB5CDE90123089B0393EE
:101AA800099B04930A9B059301AA0523FFF75CFF92
:101AB80007B05DF804FB00002DE9F7430446D01C8D
:101AC8008846164601A900228008FFF743FD2B4DE2
:101AD80000283FD0019FF81C0190C0F30900C0F511
:101AE8008063B6EB830F00F103004FEA830905EB2F
:101AF800800038D832464146DFF8848007F0F4FC8D
:101B0800D8F80C309847BB1CC3F3090305EB8303D3
:101B18000021D86008F11C0000F0BAFB80F3100027
:101B28007B1CC3F30903C7F30907220C05EB8303E6
:101B3800033742EA0040E400D86004F0380455F85E
:101B4800273044F0020444EA865203F47C131A4313
:101B580045F827202B781BB1FFF7F6FD0028FBD1AD
:101B680003B0BDE8F0834A46414607F0BDFCA6EB4A
:101B7800090208EB090105F10C00BDE7E45A002051
:101B8800E46A002030B50E4C226903460020114655
:101B980029B9D968087142B923610A6030BDC9689A
:101BA8000D79854206D00968F2E7D26814680C609E
:101BB8001360F3E701300A28E9D14FF0FF30EDE771
:101BC800E46A002038B5084B03F5805201251469F2
:101BD8001D7004B938BDE3685D71236820465B68F1
:101BE8009847E3681C68F4E7E45A0020F0B5C38816
:101BF80087B005460E4633B1294A009229492A4A38
:101C0800304600F049FC297A052946D06B7A4BB159
:101C1800A888FFF779FD254B254953F82020304641
:101C280000F03AFC234B2C681B68B4FBF3F4224BFE
:101C38001868B4FBF0F34FF47A7E00FB13444FF4BA
:101C480061610EFB04F4B3FBF1F23C2701FB123196
:101C5800B4FBF0FCB1FBF7F300FB1C4407FB1311CA
:101C68000EFB04F40091B4FBF0F41449CDE901C46F
:101C7800304600F011FC2A7A114BA88853F822202C
:101C880005920021FFF724FD059A0E4903463046C8
:101C980007B0BDE8F04000F0FFBB07B0F0BD00BFE3
:101CA800689807005098070048980700F4980700BC
:101CB80005C50700A06B00209C6B00206D980700ED
:101CC800189907008998070007B503460846197A46
:101CD800052911D05B7A2BB1094A0A49019000F015
:101CE800DBFB01980849019000F0D6FB019803B08E
:101CF8005DF804EB00F0BEBB002AF8D0F2E700BFA5
:101D08006898070005C50700659807002DE9F043A6
:101D180085B01F460C9D002395F80C902B73064642
:101D28000C46904629463846FFF760FFB8F1060F83
:101D380009D8DFE808F00412181F2833400031469C
:101D4800284600F0A9FB002229463846FFF7BCFFC9
:101D580085F80C9005B0BDE8F08322683146284626
:101D680000F09AFBEFE7D4E900233146284600F05B
:101D780093FBE8E7A36800933146D4E9002328469B
:101D880000F08AFBDFE7E3680193A368009331461C
:101D9800D4E90023284600F07FFBD4E723690293A7
:101DA800E3680193A36800933146D4E900232846E9
:101DB80000F072FBC7E76369039323690293E36842
:101DC8000193A36800933146D4E90023284600F024
:101DD80063FBB8E708292DE9F74F80460E461746FA
:101DE8001C463CD8002593F80C901D7319461046E4
:101DF800FFF7FCFEDFF888A0DFF888B0AE4231D9E3
:101E080018F805205946204600F046FB0135082DF4
:101E1800F4D11949194DDFF870A0204600F03CFBB9
:101E28004FF0000B5E4522D918F80B207E2A05D802
:101E38001046019207F01CFB019A00B92E22514668
:101E4800204600F029FB0BF1010BBBF1080FE9D18B
:101E5800012221463846FFF737FF84F80C9003B07B
:101E6800BDE8F08F5146204600F016FBCEE7294624
:101E7800204600F011FBE6E79D9807009B980700B5
:101E880099980700939807009F980700084A10B58B
:101E98000123084C13600021A04204D801B113604B
:101EA800054B186010BD40085B000121F4E700BF36
:101EB800A06B002040420F009C6B00204B1C30B5EB
:101EC800DB00044612F003009BB20DD1074D2A60D7
:101ED8001A44074B1A60074B1870074B1870074BCA
:101EE8001C80074B198030BD0720FCE7AC6B002035
:101EF800A86B0020A46B0020B46B0020B06B0020FE
:101F0800B26B00202DE9F347DFF8C080B8F8003045
:101F18008B4206460D4617464CD300240DF10700A8
:101F28008DF8074000F092F8244B254A25481B7885
:101F3800008892F800C084455FFA8CF138BF4C1CC9
:101F4800DBB238BFE4B2A3422ED014781178CBB2FA
:101F5800884286BF0133DBB2002313709DF8070067
:101F680000F0A4F84FF6FF739C4225D0DFF860908C
:101F7800D9F800204FEAC40A42F8347002EBC403CF
:101F8800AEB1A5B1104BB8F800001B682A4604FB97
:101F98000030314607F0A8FAD9F800305344002041
:101FA8009D8002B0BDE8F0874FF6FF74D6E70020A9
:101FB8009880F6E70920F4E70420F2E7B46B0020E4
:101FC800A46B0020B26B0020A86B0020B06B00202F
:101FD800AC6B002070B5104C104D22782B789A42CB
:101FE80000D170BD0E480F4A2378126806880E4843
:101FF80002EBC301006852F83320898803FB06000E
:1020080090470A4922780988D3B2914286BF0133A2
:10201800DBB200232370E0E7B46B0020A46B002040
:10202800B06B0020AC6B0020A86B0020B26B0020C6
:10203800EFF30583C3F308032BB9EFF31480C04310
:1020480000F00100704701207047000070B5044699
:10205800FFF7EEFF012803D01049432000F062F893
:10206800EFF3108672B60E4A9068012398B9936010
:102078000C4B0D4DD3F8801029401160C3F88050E7
:10208800D3F8841051604FF0FF32C3F884202070D9
:1020980006B962B670BD2370FAE700BF2C99070035
:1020A800B86B002000E100E0FC06FFBD10B5044657
:1020B800FFF7BEFF012803D00949512000F032F88C
:1020C800084B9A685AB154B9EFF3108172B6064AB0
:1020D80018681060586850609C6001B962B610BDFD
:1020E8002C990700B86B002000E100E030B53AB148
:1020F8001368DB430A4D0144814204D1D84330BD03
:102108004FF0FF33F6E710F8012B5340082213F085
:10211800010418BF2C46013A84EA5303F7D1EBE7D0
:102128002083B8ED07B5CDE900016A46002144F2E5
:10213800020002F0E1F803B05DF804FB10B561B1EC
:10214800B2FBF3F403FB1424A4B244B9C0E90014AD
:1021580084608281C381204610BD0E20FCE70920DF
:10216800FAE782B050E8022FC188B2EB324F4FF045
:10217800000317BF92B241EA014142EA014104E07B
:102188004268B2EB324F08BF012340E80212002A2E
:10219800E8D18DF807309DF80730002B0CBF1120CF
:1021A800002002B0704737B550E8013F9DB2C4899E
:1021B80025448489A54228BF2D1B0489A54202BF56
:1021C800BFF32F8F002207E0C5EA030540E801545A
:1021D800002CE9D14FF001028DF803200193019AF8
:1021E8000A609DF8031001F0FF0321B1006810FA9E
:1021F80082F003B030BD1846FBE70A884B889A4244
:1022080009D150E8012FC2EA024240E80123002B1D
:10221800F7D1012070470020704737B550E8023FDA
:102228001FFAA3F5C488A54202BFBFF32F8F00226F
:102238000DE0C48925448489A54228BF2D1BC3EA23
:10224800054540E80254002CE8D14FF001028DF812
:1022580003200193019A0A609DF8031001F0FF031F
:1022680021B1006800EB124003B030BD1846FBE70F
:102278000A884B889A4209D150E8022FC2EA2242C2
:1022880040E80223002BF7D1012070470020704757
:1022980010B5034653E8000F0A4643E8002494F0BB
:1022A800000FF7D110BD10B5034653E8000F40EA00
:1022B800010243E8002494F0000FF6D110BD10B5D8
:1022C800034653E8002F42EA010043E8000494F073
:1022D800000FF6D110BD10B5034653E8000F00EA11
:1022E800010243E8002494F0000FF6D110BD10B5A8
:1022F800034653E8002F02EA010043E8000494F083
:10230800000FF6D110BD10B5034653E8002F02EBBD
:10231800010043E8000494F0000FF6D110BD10B599
:10232800034653E8002FA2EB010043E8000494F0B1
:10233800000FF6D110BD0121FFF7B5BF0121FFF74E
:10234800BEBF0021FFF7C7BF0021FFF7D0BF0000C5
:1023580010B50446002834D003681BB91A49FF2079
:10236800FFF7E0FE636823B917494FF48070FFF761
:10237800D9FEA36823B9144940F20110FFF7D2FE31
:10238800E36823B910494FF48170FFF7CBFE238A25
:1023980023B90D4940F20310FFF7C4FED4E9012325
:1023A80021689B1ADBB20A60013BDBB2FF2B226873
:1023B80002D10020107110BD1168481C10600B700C
:1023C800F2E70E20F7E700BF8799070037B5044604
:1023D80020B913494FF49270FFF7A4FE00250DF1C0
:1023E80007008DF80750FFF731FE2268636811680F
:1023F80099420ED9481E106011F8013CE568218AFF
:1024080001FB0355A36811791B1ADBB2994238BF47
:1024180013719DF80700FFF749FE284603B030BD49
:102428008799070037B50C46054620B9104940F290
:102438004710FFF777FE24B90D494FF4A470FFF752
:1024480071FE00230DF107008DF80730FFF7FEFD40
:102458002A681368591C1160E968641A298AB4FB50
:10246800F1F41C709DF80700FFF720FE03B030BDA3
:102478008799070010B5044618B906493120FFF7B7
:1024880051FEA2682AB16369216820699847002330
:10249800A36010BDD49907000EB433B5059D04465A
:1024A80018B911494220FFF73DFE63691BB90E496F
:1024B8004320FFF737FE23681BB90B494420FFF779
:1024C80031FE63681BB908494520FFF72BFE35B17B
:1024D80006AB01AA29462046019300F079F802B01C
:1024E800BDE8304003B07047D49907000A2938B5D1
:1024F80004460D4602D10D21FFF7F8FFA3682268B4
:10250800591CA160D554D4E901329A4204D320461B
:10251800BDE83840FFF7AEBF38BD00002DE9F84FE1
:102528009846DDE90A43154682460F460A464FF0AB
:102538000109AA420FD2C14538BFC14613F0010BA9
:1025480001D16CB900240126B8F1010F1BD908F19B
:10255800FF386E43F8E709F10109B2FBF5F2E8E745
:102568009B070ED5B8F1000F0CBF30262026A145D9
:10257800E9D2013C31465046FFF7B8FF002CF6D1AE
:10258800E0E72026F3E7B7FBF6F39D42E1D9DFF851
:102598003C80B7FBF6F3504618F8031006FB137798
:1025A800FFF7A4FF3346AB42B6FBF5F6F1D2BBF119
:1025B800000F02D00CB1A14501D3BDE8F88F20214E
:1025C8005046013CFFF792FFF4E700BF619A07000D
:1025D8002DE9F74F88461746054620B9AF4940F21E
:1025E8005220FFF79FFD6B6923B9AC494FF4157072
:1025F800FFF798FD2B6823B9A84940F25520FFF74B
:1026080091FD6B6823B9A54940F25620FFF78AFD72
:10261800B8F1000F00F03E8118F8011B49B92B7B77
:10262800002B00F03781284603B0BDE8F04FFFF7D4
:1026380021BF252940F0B780002698F800302D2BBF
:10264800424608F1010823D0302B24D02B2B25D06B
:1026580000242A2B02F1010123D13B681A1D1B68B3
:102668003A601C440A4613782E2B26D101324FF0CB
:10267800000A104610F8011BA1F1300CBCF1090F3B
:102688001DD80A2303FB0A13A3F1300A0246F0E718
:1026980046F00106D1E746F00206CEE746F004060A
:1026A800CBE711F8013CA3F130000928DBD80A2256
:1026B80002FB0434303C0A46CBE74FF0000A12F81C
:1026C800011B01F0FB0068289046F8D0782909D84A
:1026D8006F290CD8632962D022D8252963D05829BC
:1026E80000F0888098F80030002B95D197E7703972
:1026F8000829F7D801A353F821F000BF772807006D
:10270800ED260700ED2607000D280700ED26070037
:10271800EB270700ED260700ED260700FD27070039
:10272800642901D06929DDD13A68D2F80090111DD9
:1027380089EAE9723960A2EBE9724FF0010B092AC4
:1027480035DCD34538BFD3462CB1B9F1000F01DBD6
:10275800720700D5013CB30702D5BAF1000F03D0C8
:10276800F00701D44CBB0024B9F1000F2DDAC9F1F0
:1027780000092D212846FFF7B9FE06F00302022AB8
:1027880004D1BAF1000F01D11CBB0024CDE90046E9
:1027980053460A2249462846FFF7C0FEA2E73B688F
:1027A8001A1D19783A602846FFF7A0FE9AE70A230F
:1027B8000BF1010BB2FBF3F2C1E7A345D4D2202100
:1027C8002846013CFFF792FECCE77107D5D52B21AF
:1027D800D0E7A345DAD230212846013CFFF786FE30
:1027E800D2E73968CDE900460A1D3A6053460A2205
:1027F8000968D0E739680A1D3A60CDE900465346B2
:102808001022F5E73B681A1D3A6016F00106D3F866
:10281800009024D1B9F1000F03D0484606F0E2FE3B
:102828000646B4421DD809F1FF3919F8011F0029DD
:102838003FF458AF2846FFF759FEF6E72846013619
:10284800FFF754FE19F806100029F7D1A642BFF485
:1028580049AF20212846013CFFF748FEF6E700264D
:10286800F0E720212846013CFFF740FED9E73B6806
:102878001A1D3A60302128461C68FFF737FE782178
:102888002846FFF733FE00220823CDE9003221460F
:10289800102280E703B0BDE8F08F00BF179A070049
:1028A80070B50D461646044618B908495520FFF775
:1028B80039FC1DB905495620FFF734FC2B68256003
:1028C80031462046BDE87040184700BF719A07009E
:1028D8002DE9F041DDF818800E4617461D460446DE
:1028E80018B922498820FFF71DFC1FB91F49892004
:1028F800FFF718FC23681BB91C498A20FFF712FC54
:1029080045BB1A498B20FFF70DFCB20703D01749C6
:102918009120FFF707FCBB0703D014499220FFF76B
:1029280001FCE3689E4204D322696B1E3344934240
:1029380003D90E499320FFF7F5FB2368CDF81880DB
:10294800D3F80CE03A462B4631462046F446BDE81B
:10295800F041604763685A68B5FBF2F302FB135312
:10296800002BD2D001498E20CDE700BF719A070015
:102978002DE9F0410D4616461F46044618B9194977
:102988009E20FFF7CFFB23681BB916499F20FFF74E
:10299800C9FB1EB91349A020FFF7C4FB63681B6875
:1029A800013B2B4203D00F49A320FFF7BBFBE36891
:1029B8009D4207D363681A686B1E02FB06332269BF
:1029C800934203D90749A520FFF7ACFB2368D3F846
:1029D80010E032463B4629462046F446BDE8F04121
:1029E800604700BF719A070070B550B90E4D0F4C83
:1029F8000026641B1423B4FBF3F4B44208D100206E
:102A080010E00368002BF1D0BDE87040DB6918477F
:102A18002B6813B901361435EFE7DB692846984768
:102A28000028F7D070BD00BF685900207C590020ED
:102A3800014B436000207047D09A07000846704752
:102A480000207047024B1868003818BF01207047F3
:102A5800C46B002008B50248FFF776FC002008BDCB
:102A6800C46B002008B510461A4606F03DFD00204C
:102A780008BD00002DE9F041804686B011480F4698
:102A880016461D46FFF757FC0446C8B9AA08314642
:102A9800384600F0B7FC0B48FFF756FCD8F808306A
:102AA80053B101228DF800200C9A0592CDE9014717
:102AB800CDE9036568469847204606B0BDE8F08131
:102AC8001124F9E7C46B00202DE9F043814687B053
:102AD80014480E4615469846FFF72DFC0446F0B9F3
:102AE8000746BD4215D10F48FFF72EFCD9F808302C
:102AF8005BB102228DF800200022CDE90126CDE944
:102B08000325CDF8148068469847204607B0BDE8ED
:102B1800F08306EB073000F047FC0137E1E71124AA
:102B2800F3E700BFC46B002029DF704728DF704738
:102B380070B503689E6886B004460D466EB11422CF
:102B48000021684606F0F9FCA368059323790195EE
:102B58002BB1012B0DD06846B04706B070BD0123DC
:102B68008DF8003023690293E36803936369049343
:102B7800F1E702238DF80030E3681B030293F5E7C1
:102B88000846704700207047024B187A003818BF73
:102B980001207047B46D0020034B187A0122B0FA67
:102BA80080F05A7440097047B46D002008B510468B
:102BB8001A4606F099FC002008BD000008B514224A
:102BC8000021044806F0B9FC0348FFF7CAFA0020C0
:102BD80008BD00BFB46D0020A46D002010B5094CDD
:102BE800094B43602046FFF7A6FB48B906F04CFAAC
:102BF800064920741C2306484FF4EE72FFF79EFA2C
:102C0800002010BDB46D0020FC9A0700C86B00209E
:102C1800A46D002038B5224D224C2B7A3BB92249AD
:102C28002248FFF7FAFA206008B9686038BD022325
:102C380024682B72237973B1012B22D020460321FB
:102C4800FFF776FF00232B726B6017491748BDE822
:102C58003840FFF70DBBD4E90523D21A142AD4E96A
:102C6800031028BF14229208012A38BF01221944F0
:102C78001844FFF759FF50B11128DFD101232B72F7
:102C8800D4E7D4E903031844FFF750FFF3E72B7C9C
:102C9800002BCBD1BDE83840022000F009B800BFB6
:102CA800B46D0020CC6D0020C86D0020A46D0020FC
:102CB80038B5224C237A002B3FD0022B09D10328A8
:102CC8002ED01F4B00221B68E2601A793AB1012A04
:102CD80020D0637C6BBBBDE83840FFF79BBFD3E9CE
:102CE80005128D1A142D94BF521914329A6191420B
:102CF800EFD102284FF0000308BF19462372104B8A
:102D080018BF0D211868FFF713FF0E490E48FFF78B
:102D1800AFFADEE71A6901321A615B699A42E7E79E
:102D2800E3680133082B01D8E360D2E70023E360AE
:102D3800DFE7BDE8384006F097B938BDB46D00202C
:102D4800CC6D0020C86D0020A46D0020831E012BCF
:102D580001D8FFF7ADBF704700F0FD03012B08D184
:102D6800044B00225A74421E504250411874FFF717
:102D780051BF7047B46D002010B5064C201DFFF7F9
:102D8800DAFA28B9637C1BB9BDE81040FFF742BFE7
:102D980010BD00BFB46D00202DE9F34180460D46FB
:102DA8000F4801A916461F46FFF7FDF90446A8B1CA
:102DB8001C22002106F0C1FB2D0B0123237101A960
:102DC8000748C4F80080A760E5606661FFF715FA58
:102DD800FFF7D2FF002002B0BDE8F0810420FAE737
:102DE800A46D00202DE9F74381468846104801A9C3
:102DF80017461E46FFF7D7F90446B0B11C2200213A
:102E080006F09BFB00250A9BA36001A9C4E903788F
:102E180007482571C4F800906661FFF7EEF9FFF7DF
:102E2800ABFF284603B0BDE8F0830420FAE700BFF3
:102E3800A46D00202DE9F74F99469DF83030009396
:102E480088469346064618B92349B620FFF76AF91B
:102E5800F28871794A43043A4A4505D81E490192D5
:102E6800C420FFF75FF9019ADBF80070B6F806A0F6
:102E780007EB0901914209F1040488BFA2EB090795
:102E8800B4FBFAF5CBF800700AFB154445B9AAEB78
:102E9800040BBB4528BFBB462FB903B0BDE8F08F74
:102EA8003668013DF2E7009B043408EB0500344422
:102EB8005A466BB12146A7EB0B0706F015FBBA453E
:102EC8005D443668D3464FF0000428BFBB46E3E7AD
:102ED80001462046EFE700BF289B0700FFF738BAF6
:102EE800F8B546790146721E0546002393422D68BF
:102EF80003D30024A64202D8F8BD0133F6E70F68D1
:102F08002846FFF78FFA01343946F3E72DE9F843ED
:102F1800068ACD1C0746FFF759FA043E3544044695
:102F2800B5FBF6F5F0B14FF48073EDB28380C6803F
:102F3800013D076081464FF00008A84512D2384687
:102F4800FFF744FA064648B163790133637108F123
:102F58000108C9F8000007608146EEE72046FFF740
:102F6800BFFF34462046BDE8F88301210430FFF74F
:102F7800CAB910B5012104460430FFF7D0F9C0B230
:102F880020B92046BDE81040FFF7AABF10BD0000D9
:102F98001FB5144603920022009203AAFFF74AFFC6
:102FA800039BA34203D00349F620FFF7BBF804B004
:102FB80010BD00BF289B07001FB5144603920122CD
:102FC800009203AAFFF736FF039BA34204D00349EC
:102FD8004FF48070FFF7A6F804B010BD289B0700D7
:102FE800836800225A60C3E904229A60DA601A6092
:102FF8007047000038B50D46044618B909495020F5
:10300800FFF790F81DB907495120FFF78BF82B6897
:103018006A686360934208BF0023256008BF636045
:1030280038BD00BF759B070010B5044618B90B4999
:103038006320FFF777F823681BB908496420FFF776
:1030480071F8636843B12268916852680B449342EF
:10305800636004BF0023636010BD00BF759B070059
:1030680010B50D49A1F59472914201D800200FE0E6
:103078008C1AE30F03EBE4035B1002EBC30452F872
:103088003330834205D802D204F10802ECE76068C5
:1030980010BD2146E8E700BFD0A0070008B5FFF73C
:1030A800DFFF024B002808BF184608BD959F0700A0
:1030B8002DE9F04FC9B008AA01F1400514464B7834
:1030C8000E781B0443EA0663CE7833438E780431C6
:1030D80043EA06238D4244F8043BF0D11024916B57
:1030E80016464FEAF14383EA714383EA9123716AF2
:1030F800366852F8045F31440B444FEAB54181EA1F
:10310800F51181EAD50101340B44402CD363E6D193
:10311800D0E914E30093836D0193C36D0293036EAA
:103128000393436E0493836E0593C36E0693DDE9A0
:10313800057BDDE9031CDDE901592B4B009E079354
:1031480074464FF00008079B53F8042B07934FEA87
:10315800F12383EAB11383EA716A08AB53F8283084
:103168001A440AEB020327EA010A01EA0C028AEA76
:1031780002021A444FEA743A86EA05035A44234085
:103188008AEAB40A06EA050B83EA0B0B8AEAB45A00
:1031980008F10108DA44B8F1400F02EB0903BB4615
:1031A8005244A94619D172440265009A22444265E4
:1031B800019A32448265029A2A44C265039A1A44E3
:1031C800049B02660B444366059B63448366069B27
:1031D8003B44C36649B0BDE8F08F674635468C4628
:1031E800264619461446AEE7D0A0070030B5E0B130
:1031F8000F4A104900240025C0E91245C0E91412FD
:103208000D4C0E4A0E4DC0E916420E4AC0E918523E
:103218000D4A826602F17452A2F523020023A2F637
:1032280092420364C266184630BD0E20FCE700BF18
:1032380085AE67BB67E6096A72F36E3C3AF54FA53F
:103248007F520E518C68059BABD9831F70B5F0B1C6
:10325800DAB900201CE00C468D180026AC42F8D0E4
:10326800036C14F8012BC2540133402B0364F5D1CD
:103278000146FFF71DFFD0E9123213F5007342F142
:103288000002C0E912320664E8E70029E3D10E2003
:1032980070BD70B50D461646044600287AD0002940
:1032A80078D0036C8021372BC15403F1010243D835
:1032B800034400F13802002101339A423AD1D4E99B
:1032C8001223216C0820E1FB0023C4E9122312BA5F
:1032D800E26323FA00F284F83B3084F83A201A0CAF
:1032E8001B0E214684F8392084F838302046FFF731
:1032F800DFFE691E7EB30023E26EDA4001F8012F7B
:10330800A26EDA400A71626EDA400A72226EDA4000
:103318000A73E26DDA400A74A26DDA400A75626DCA
:10332800DA400A76226DDA400833202B0A77E3D197
:10333800002070BD1970BFE700233F2A08D9214635
:103348002046FFF7B5FE3822002106F0F6F8B6E76A
:10335800A3540132F1E71823226DDA4001F8012F56
:10336800626DDA400A71A26DDA400A72E26DDA40E3
:103378000A73226EDA400A74626EDA400A75A26E27
:10338800DA400A76E26EDA40083B13F1080F0A7752
:10339800E2D1CDE70E20CCE7024AD2F80034002B68
:1033A800FBD0704700E001400A4908B50223C1F884
:1033B8000435BFF36F8FBFF34F8FC1F80805FFF7D0
:1033C800EBFF0023C1F80435BFF36F8FBFF34F8FB6
:1033D80008BD00BF00E0014010B5094C0123C4F846
:1033E8000435BFF36F8FBFF34F8F0160FFF7D4FF32
:1033F8000023C4F80435BFF36F8FBFF34F8F10BDA0
:1034080000E0014070B50E4E01231546C6F804359C
:10341800BFF36F8FBFF34F8F0024AC4207D1002357
:10342800C6F80435BFF36F8FBFF34F8F70BD51F8E7
:10343800243040F82430FFF7AFFF0134EDE700BF38
:1034480000E0014043689B68184708B543680830A6
:103458005A7900F0F1FE002008BD2DE9F0410C4634
:103468009CB008461F460392FFF7ECFFD4F804808F
:10347800039998F80550BD4228BF3D4606462A469E
:1034880004A800F0BDFE98F8052022990CA800F0C9
:10349800D3FE00960CAB2A4604A904F1080001F0FB
:1034A80001FE002848F2425018BF00201CB0BDE8B9
:1034B800F0810023C0E902328B881A44B1F9063042
:1034C80002611A44C0E9001142610888003818BF37
:1034D800012070474268118838B50346002937D063
:1034E800148A02F1100141602CB9C2680168FFF723
:1034F800E0FF204638BD9078118900F03005302D66
:1035080014D1947C04F03004302C1BD190881969B4
:10351800091A19610021908AB2F91620084419691C
:1035280001441961114459610120E3E700F0F004F6
:10353800202C07D150894143002DECD198680130E7
:103548009860E8E700F0C000802808BF0421F3E78E
:103558000846CFE770B5466804460D4663681A8882
:10356800AA4204D19B7803F00F03082B07D1204609
:10357800FFF7B0FF6368B342F0D1002070BD0120AF
:10358800FCE743681A44426011B101399A4201D1FB
:103598000120704713F8010B01F8010FF6E770B529
:1035A8004568AA7802F00F06082E86B003461FD198
:1035B80003691C6800260CB906B070BD23686268F0
:1035C8009D68267329466846FFF773FF636804936E
:1035D80004F10C030593AB7803F0C003802B08BFFC
:1035E800231D684608BF0493FFF7D9FFA468E2E7E4
:1035F80012F0C00122D102F0300010280CD15A6913
:103608001170072EEC6818690BD10146204606B0E8
:10361800BDE8704000F01AB89006F2D55B691980D1
:10362800CAE72A89214624B106B0BDE8704005F0F2
:103638005BBF06B0BDE8704005F07FBF8029BBD1F5
:103648000069002192060160B6D5E7E77FB50A4612
:1036580001466846FFF72DFF30B16846FFF79FFF28
:103668006846FFF737FFF7E707B05DF804FB8368A4
:1036780010B504460BB9002010BD03680122984715
:103688000028F8D0A368013BA360F5E72DE9F341D2
:103698000F460DF107018046FFF7E9FF054620B9FF
:1036A8000025284602B0BDE8F0819DF907309DF855
:1036B8000740002B13DA04F07F0407260DF10701F9
:1036C8004046FFF7D4FF0028EAD09DF8072002F013
:1036D8007F03B3401C43130606F1070601D43C6080
:1036E800DFE7232EEAD1DBE730B5044685B015467F
:1036F800A9B90268114B9A4211D0102D06D82A4652
:1037080069462046FFF7F0FF05B030BD1022694634
:103718002046FFF7E9FF0028F6D0103DEDE7A36843
:10372800AB4201D20020EFE723682A46204698479B
:103738000028F7D0A268521BA260E5E78B35070086
:10374800F7B50E4601A907461546FFF79FFFA0B13A
:10375800019A511C4FF0000404D2B37803F0C0035F
:10376800802B01D1204608E033898B42FAD32946C1
:103778003846FFF7B9FF019BEC5403B0F0BD73B5B1
:103788000D4601A906461446FFF780FF98B1019A35
:10379800B2F5803F11D2AB7803F0C003802B02F161
:1037A80002010AD02B898B4207D32146304621F8E3
:1037B800022BFFF799FF02B070BD0020FBE7000065
:1037C80010B5034C82600022C0E90041C26010BD00
:1037D8008B3507002DE9F341002580460E462F461C
:1037E8002C460DF107014046FFF741FFC0B19DF897
:1037F80007C0A4F120030CF07F02C4F1200102FAF3
:1038080003F322FA01F10B43A2401CF0800F45EAB2
:10381800020547EA030704F1070404D1C6E9005783
:1038280002B0BDE8F081462CDBD10020F8E737B5BF
:103838000D4669461446FFF7CDFF70B12B89082B5A
:103848000DD1DDE90032C4E90032DDE90001914221
:1038580008BF98420CBF0120002003B030BD042BE4
:1038680003D1009B23600022EFE7022B03D1009BCA
:1038780023809BB2F7E7012B04D1009B237003F050
:10388800FF03F0E70020E8E737B50D466946144620
:10389800FFF7A0FF30B12B89082BDDE9001203D117
:1038A800C4E9001203B030BD042B4FEAE17009D11E
:1038B80021600B460246824208BF8B420CBF0120A2
:1038C8000020EFE7022B03D10BB22380DA17F2E7CF
:1038D800012B02D14BB22370F8E70020E2E7F7B5DD
:1038E8001F4600233B700D460B70136001A9044668
:1038F8001646FFF7CBFE30B9A36813B901233B7016
:10390800002003B0F0BD019C002CF7D0E30804F0C0
:10391800070433602C70F4E713B50446052925D84D
:10392800DFE801F0030F17242422012201A9204611
:10393800FFF7DAFE18B19DF90430002BF5DB02B071
:1039480010BD08220021204602B0BDE81040FFF754
:10395800CBBE01A9FFF79AFE0028F0D0019A0021FA
:103968002046FFF7C1FEEAE70422EBE70020E6E77E
:1039780073B50D4601A90446FFF788FE064618B937
:103988000026304602B070BD94E80F0085E80F00AD
:1039980001998A42F4D3A960A3685B1AA360F0E78F
:1039A8002DE9F0435668B37813F0C00489B0074690
:1039B8008C46154603D0402C69D000240CE003F057
:1039C8000F02604903F03003202B51F8228025D0E4
:1039D80006D8E3B1102B17D0204609B0BDE8F08314
:1039E800302BF9D16B6931881980072A09D1214612
:1039F8003289286905F0A1FD6B682969D868FFF745
:103A080025FE2A69696840E06B6901221A702A69F3
:103A18003146434609B0BDE8F0431847BCF1020FF0
:103A2800D5F8149024D1042A22D804A9FFF7A0FFBE
:103A380004460028C1D0069B2BB16968B9F800304C
:103A48004A899A4205D8059B7B60069B002BC3D008
:103A5800B3E708892A6903FB002204A8C04728B1F4
:103A6800B9F800300133A9F80030E4E70446EAE782
:103A7800B9F8003072899A429FD931892A69581C4D
:103A880003FB0122A9F8000031463846C1E7D2F805
:103A98001080464656F8043B23B909B0BDE8F04308
:103AA800FFF73ABF022914D104A9FFF761FF0028E4
:103AB80083D0D8F800306968324604A8984704468D
:103AC80000283FF47AAF069B002BF2D1059B7B6060
:103AD80082E7012926D005292CD000297FF46DAF73
:103AE8000C460DF1040901340B2C3FF466AF01229A
:103AF80049463846FFF7F8FD00283FF45EAF19F94C
:103B0800013B002BEFDB104B049301ABCDE90534EF
:103B1800002307936968D8F80030324604A898470C
:103B2800044659E7082201A9FFF7DEFD082400280A
:103B3800E9D142E704220DEB0201FFF7D5FD042489
:103B4800F5E700BFDCA107008B3507002DE9F04F32
:103B580091B00446002604A8CDE90266FFF7A9FC47
:103B6800A3683BBBDDE9053404A89D78FFF7B2FCE8
:103B78000028F7D115F0300F03D1059B1B8803B13E
:103B88000134002C00F0A980630902A900229342A5
:103B980040F09C8010AA02EB830304F01F0453F842
:103BA800383CC4F120044FF0FF30E040C31A5842BB
:103BB80058410DE00DF1030301AA0DF10201204661
:103BC800FFF78DFE38B99DF80330002BCAD10020CD
:103BD80011B0BDE8F08F019904A8FFF7BBFC0028DD
:103BE80050D1019BB3427DD3059D059A937803F08C
:103BF8000F03082B7FD004A8FFF76CFC059B9D42A0
:103C0800F3D14FF0FF36019FB7426BD3089B9DF865
:103C180002A0D4F808801D684FF00109A368002DA0
:103C28005DD098459CD12B68D3F800B0BBF1000F4C
:103C380008D053463A4629462046D8470028C6D0D9
:103C4800AD68EBE7D3F808B0BBF800309F42F7D176
:103C58006A6859460AA8FFF72CFC6B680E9305F1B1
:103C68000C030F939BF8023003F0C003802B04BFB2
:103C78002B1D0E930AAA85F80C9051462046FFF793
:103C88008FFEDBE7059B9B7813F0300F0FD1069A68
:103C98003F2A0CD8510910AB03EB810102F01F0237
:103CA8000123934051F8382C134341F8383CE56818
:103CB8002DB19DF80220019904AB2046A8479DF834
:103CC800021004AA2046FFF76BFE10E051F8045BCF
:103CD80001357FF47DAF013259E7012078E7984537
:103CE8007FF43EAF9DF802102046FFF715FE00282E
:103CF8007FF436AF6BE7168885E737B50C4605467F
:103D0800114620460192FFF7A1FC019A2146284658
:103D180003B0BDE83040FFF719BF70B586B0CE6874
:103D280001920C4602A90546FFF722FE68B1E06839
:103D380058B1A378019A03F03003202B314602A82A
:103D480005D1FFF7DAFF039B6B6006B070BDFFF784
:103D5800FDFEF8E713B50C466946FFF73BFD60B179
:103D6800DDE900134A0842EAC372C9074FEA530360
:103D780044BFD243DB43C4E9002302B010BD37B5CA
:103D88000D4669461446FFF7E5FF70B12B89082BED
:103D98000DD1DDE90032C4E90032DDE900019142CC
:103DA80008BF98420CBF0120002003B030BD042B8F
:103DB80003D1009B2360DA17EFE7022B03D1BDF98B
:103DC80000302380F7E7012B03D19DF900302370E1
:103DD800F1E70020E9E713B504220C460DEB0201D8
:103DE800FFF782FC08B1019B236002B010BD1146A9
:103DF800FFF7F1BF13B508220C466946FFF774FCBC
:103E080018B1DDE90023C4E9002302B010BD114652
:103E1800FFF7F0BF08B543090CBF4FF0FF3300238D
:103E280000F01F0023FA00F0C30704D403494FF43D
:103E3800F670FEF777F94FF0A04008BD00A2070022
:103E4800032810B5044603D906494120FEF76AF94C
:103E5800054B1C5D2046FFF7DDFF0123A340C0F89A
:103E68000C3510BD2BA207006AA20700032810B565
:103E7800044603D906494720FEF754F9054B1C5D53
:103E88002046FFF7C7FF0123A340C0F8083510BD3F
:103E98002BA207006AA2070008B50020FFF7E6FF7B
:103EA8000120FFF7E3FF0220FFF7E0FFBDE808402D
:103EB8000320FFF7DBBFC20738B5044616D511202B
:103EC800FFF7A8FF0325C0F844571220FFF7A2FF09
:103ED800C0F848571320FFF79DFFC0F84C5714202F
:103EE800FFF798FFC0F85057FFF7D6FFA30714D580
:103EF8000D20FFF78FFF0C24C0F834470E20FFF782
:103F080089FFC0F838470F20FFF784FFC0F83C4707
:103F18001020FFF77FFFC0F8404738BD38B1054B88
:103F28000360054B436001230372002070470E2095
:103F3800704700BF6B3F0700453F070069B10B782A
:103F4800022B0CD1022804D0032814BF082011200A
:103F5800704703230B70002070470E20704708201D
:103F6800704710B50C4681B10B78012B06D00ED9DD
:103F7800033B012B94BF0820112010BD03F0CEFE97
:103F88000028FAD102232370F7E70E20F5E708206E
:103F9800F3E7000070B5144B144A0C21D21AB2FB97
:103FA800F1F2816911F8025C044635B90069002113
:103FB800914205D1012323600EE04FF0FF30F6E770
:103FC8001E68AE420CD1461C07D19D68D4E9000199
:103FD800D4E90223A847206070BD5E688642F4D009
:103FE80001310C33E4E700BF5496070060960700E0
:103FF8001EF0040F0CBFEFF30880EFF30980FFF702
:10400800C9BF00BF28B139B10023C1E90030184643
:10401800704748F21050704748F21350704730B15B
:10402800036848F240508B4208BF0020704748F2AE
:104038001050704728B148F21150914208BF002033
:10404800704748F21050704770B506460C461D463A
:10405800FFF7D8FF50B9B3794AB1AB420AD111463C
:104068002046FFF7F2F908B9044B236070BD48F207
:104078001050FBE748F21150F8E700BF7052464D68
:104088002DE9F0470C4606460F492046DDE9088928
:1040980015461F46FFF7C3FFA0B963685A7949461A
:1040A80052004046FFF7C6FF60B94DB1CDF82080F9
:1040B8003B462A4621463046BDE8F047FFF7CDB9D2
:1040C80048F21050BDE8F0877052464D10B50446CE
:1040D80038B149B10B684160984708B9044B23606F
:1040E80010BD48F20150FBE748F21050F8E700BF56
:1040F8006E524648F0B4134648B10768094EB742B5
:104108000AD161B12AB14368F0BC5B68184748F22C
:1041180001531846F0BC704748F20253F9E748F2D9
:104128001053F6E76E524648F0B460B107680C4E7B
:10413800B7420CD171B143681568DC68A5420CD34D
:10414800F0BC9B68184748F20150F0BC704748F231
:104158000250FAE748F21350F7E748F21450F4E730
:104168006E524648F7B50446DDE9086715460193DF
:10417800FFF7ACFF68B9019A29462046FFF7BAFF56
:1041880038B93A463146204603B0BDE8F040FFF75B
:10419800CBBF03B0F0BD0000F8B50A4F0A4C0B4E78
:1041A800E41B0123E40833700025A54203D1022350
:1041B80033700020F8BD57F8353098470028F9D1FA
:1041C8000135F2E74C9607004C960700D06D0020A9
:1041D80038B50D46044618B908493320FDF7A2FF43
:1041E800691E21442046814200D238BD03780A78EE
:1041F80000F8012B01F80139F5E700BF6EA20700AE
:1042080070B50D461446064618B90A494520FDF70B
:1042180089FF1DB907494620FDF784FF621E324415
:10422800013DB24200D270BD15F8013F02F80139D4
:10423800F7E700BF6EA2070070B5164604460D46A4
:10424800FFF7DEFF3246A919A019BDE87040FFF755
:10425800D7BF38B50D460446FFF7BAFF294660199F
:10426800BDE83840FFF7B4BF08B507281BD8DFE81A
:1042780000F004121A1A1A041A040120FFF71BFE90
:104288000020FFF7DDFD0120FFF7DAFDBDE808405B
:104298000220FFF7EBBD0120FFF7E8FDBDE808406D
:1042A8000220FFF7CDBD08BD08B5FDF78BFCFDF773
:1042B8004BFA0028FBD10D4D642445F001054FF45D
:1042C8007A40A847013CFAD1094BD3F8F020D2072D
:1042D80000D500BEBFF34F8FD968064A01F4E061EC
:1042E8000A43DA60BFF34F8F00BFFDE790A30700D2
:1042F80000ED00E00400FA0507B50B46064C074937
:104308000092641AE40824040246054944F00100B6
:10431800FDF7A7FBFFF7C8FF609607006096070048
:1043280004A3070008B50246054B064806491B1AB0
:10433800DB081B0443F00100FDF780FBFFF7B4FF27
:1043480060960700609607003BA3070010B501F0D0
:10435800E3FE4FF48051002001F0ADFA08B1FFF7F9
:10436800E1FF1548C0F5FC2101F0A5FA0146002837
:10437800F5D11248124CFDF78DF9FDF7B5F8114B40
:104388001149E41AE408240444F00300FDF752FB41
:104398000E4801F039F90028E1D1FDF7D5F90028D8
:1043A800FBD10B4944F00100FDF744FBFDF7CCF9C4
:1043B8000028FBD1D3E700BF00100700415C0700CD
:1043C800609607006096070056A307007142070031
:1043D80062A307008B1810448B4200D1704713F872
:1043E800012D00F8012DF7E7C3F10803DB0070B5D4
:1043F80001330446002003A55B1920C940CAAD1942
:1044080020C4184720C940CA754120C420C940CAE1
:10441800754120C420C940CA754120C420C940CA7A
:10442800754120C420C940CA754120C420C940CA6A
:10443800754120C420C940CA754120C4404170BD9F
:104448000000000000000000C3F10803DB0070B5A5
:104458000133002403A500BF5B1920C940CAAD1B66
:1044680020C0184720C940CAB54120C020C940CA49
:10447800B54120C020C940CAB54120C020C940CAA2
:10448800B54120C020C940CAB54120C020C940CA92
:10449800B54120C020C940CAB54120C06441B4FA22
:1044A80084F0400970BD00BF2DE9F04F08B4F8CA88
:1044B80004B451F8042BA3FB028940F8048B4FF095
:1044C800000AE4FB629A4FF0000BE5FB62AB4FF089
:1044D800000CE6FB62BC4FF0000EE7FB62CE51F821
:1044E800042B4FF00008E3FB628940F8048BE4FBDF
:1044F800629AE5FB62ABE6FB62BCE7FB62CE51F871
:10450800042B4FF00008E3FB628940F8048BE4FBBE
:10451800629AE5FB62ABE6FB62BCE7FB62CE51F850
:10452800042B4FF00008E3FB628940F8048BE4FB9E
:10453800629AE5FB62ABE6FB62BCE7FB62CE51F830
:10454800042B4FF00008E3FB628940F8048BE4FB7E
:10455800629AE5FB62ABE6FB62BCE7FB62CE40F821
:10456800049B40F804AB40F804BB40F804CB40F887
:1045780004EB0CBC052B00F01E810C68A0F11400A4
:10458800A1F11401A2F1140252F804EB4FF0000556
:1045980050F8046BE4FB6E5652F804EB50F8047BB9
:1045A800E4FB6E6752F804EB50F8048BE4FB6E787A
:1045B80052F804EB50F8049BE4FB6E8952F804EBC4
:1045C80050F804ABE4FB6E9AA0F1140052F8044BC7
:1045D80051F804EB4FF0000CE4FB6EC540F804CB37
:1045E80051F804EBE4FB6E5640F8045B51F804EB19
:1045F800E4FB6E6740F8046B51F804EBE4FB6E785B
:1046080040F8047B51F804EBE4FB6E8940F8048B16
:1046180051F804EBE4FB6E9AA0E80006062B00F0C4
:10462800CA800C68A0F11800A1F11801A2F11802C3
:1046380052F804EB4FF0000550F8046BE4FB6E569B
:1046480052F804EB50F8047BE4FB6E6752F804EB75
:1046580050F8048BE4FB6E7852F804EB50F8049B96
:10466800E4FB6E8952F804EB50F804ABE4FB6E9A55
:1046780052F804EB50F804BBE4FB6EABA0F1180051
:1046880052F8044B51F804EB4FF0000CE4FB6EC5F4
:1046980040F804CB51F804EBE4FB6E5640F8045B99
:1046A80051F804EBE4FB6E6740F8046B51F804EB37
:1046B800E4FB6E7840F8047B51F804EBE4FB6E8968
:1046C80040F8048B51F804EBE4FB6E9A40F8049B25
:1046D80051F804EBE4FB6EABA0E8000C072B6AD0A2
:1046E80008B40C68A0F11C00A1F11C01A2F11C0285
:1046F80052F804EB4FF0000550F8046BE4FB6E56DB
:1047080052F804EB50F8047BE4FB6E6752F804EBB4
:1047180050F8048BE4FB6E7852F804EB50F8049BD5
:10472800E4FB6E8952F804EB50F804ABE4FB6E9A94
:1047380052F804EB50F804BBE4FB6EAB52F804EB00
:1047480050F804CBE4FB6EBCA0F11C0052F8044BFB
:1047580051F804EB4FF00003E4FB6E3540F8043BDE
:1047680051F804EBE4FB6E5640F8045B51F804EB97
:10477800E4FB6E6740F8046B51F804EBE4FB6E78D9
:1047880040F8047B51F804EBE4FB6E8940F8048B95
:1047980051F804EBE4FB6E9A40F8049B51F804EBE3
:1047A800E4FB6EAB40F804AB51F804EBE4FB6EBCE1
:1047B800A0E8001808BCBDE8F08F002310B51C461F
:1047C8005AB2914200DC10BD40F823400133F7E7AC
:1047D80010B500231A465CB2A14203DCB2FA82F09B
:1047E800400910BD50F8234001332243F3E74A1132
:1047F800012350F8220001F01F0103FA01F10840DB
:104808007047013910B549B2041D0A06CBB204D469
:10481800013954F82120002AF7D001335BB273B173
:1048280003F18042013A50F82220002022B9013BCE
:1048380000EB431318B210BD52080130F6E71846D2
:10484800F9E710B500235CB2A24200DC10BD51F8B4
:10485800234040F823400133F5E710B5013A52B23E
:10486800130601D5002010BD50F8224051F822301F
:104878009C4205D802F1FF32F2D24FF0FF30F2E746
:104888000120F0E700EB81010023884200D3704744
:1048980051F8042D43EA52030B60D307F5E737B507
:1048A8001D469DF9183001930446FFF79DFD019BB5
:1048B80038B91A4621462846FFF7CFFF0128019B41
:1048C80007D02A462146204603B0BDE83040FFF70E
:1048D800BBBD03B030BD37B51D469DF918300193F7
:1048E8000446FFF7B1FD019B38B12A462146204610
:1048F80003B0BDE83040FFF777BD03B030BD2DE908
:10490800F04FB5B004AC9DF9F8501F4680462B46D1
:104918002046FFF7C9FD24AB29463846CDE90234C5
:10492800FFF76FFFC0EB851004B2002C2146B8BF1B
:1049380004F11F01634203F01F0341F3471104F020
:104948001F0614A858BF5E42FFF737FF002E08B2B3
:104958002BDD14AB002203EB8000C6F1200E1346BA
:10496800AB4217D36B00019314AB03EB85096F1EA1
:1049780034AB012603EB8707002C54DA34AB03EB86
:1049880086062A4656F8C81C4046FFF75AFF35B037
:10499800BDE8F08F57F823C00CFA06F10A4340F837
:1049A800042B01332CFA0EF2DAE714AB2A46394607
:1049B80003EB8000FFF745FFD4E70FFA82FE5AF8B1
:1049C800C83C53F82EB034AB03EB8202013052F8E6
:1049D800803C0B44BBEB030334BF012200229B4500
:1049E80018BF11465CF8C82C42F82E30019B42B221
:1049F8009A42E2DB731A5E42294614A85E41FFF729
:104A080041FF34AB03EB8503294653F8802C57F854
:104A1800803C43EAC27347F8803C4846013CFFF7B4
:104A280031FF24B2A8E734AB0020C6F1010C0146DF
:104A380003EB860A03EB8C0CD8E730B51C4691B023
:104A4800054693F900306846FFF72EFDD4F8AC30E0
:104A580069462846984711B030BD13460A46FFF705
:104A6800ECBF2DE9F04793F9006092B004468946FF
:104A78001046314615461F46FFF7AAFE002840F0AB
:104A880091803A46494602A8FFF7E7FF3B4602AA4B
:104A980021460AA8FFF7D1FF02A908463A46FFF7C0
:104AA800DCFF3B462A4649464846FFF7C6FF07F162
:104AB80004083A4629462846FFF7CFFF43462A46C8
:104AC800214620460096FFF7EAFE43462A46294635
:104AD80028460096FFF7E3FE43462A462146284625
:104AE8000096FFF7F8FE3B462A4621462046FFF788
:104AF800A4FF43462246214628460096FFF7CFFEEC
:104B0800434600962A4621462046FFF7C8FE2368FA
:104B1800DB074AD53346424621462046FFF764FC68
:104B2800314682462046FFF7ADFE06F18043013B41
:104B380054F8232042EACA7244F823203A46214610
:104B48002846FFF78AFF43460AAA294628460096C0
:104B5800FFF7C1FE43460AAA294628460096FFF7F2
:104B6800BAFE0AA9084643462A460096FFF7B3FE4E
:104B78003B460AAA21462046FFF75FFF02AA4346A2
:104B8800104621460096FFF7A6FE324629462046E3
:104B9800FFF757FE49462846FFF753FE02A9484645
:104BA800FFF74FFE12B0BDE8F08731462046FFF709
:104BB80069FEC3E72DE9F04115468AB004460E4662
:104BC8001C22002103A804F0B8FC2F1D95F90080D1
:104BD80003232A46314620460293FFF73EFF3B4611
:104BE80002AA21462046CDF80080FFF774FE2B4626
:104BF800324621462046FFF720FFCDF800803B468D
:104C080005F1840221462046FFF749FE0AB0BDE8B7
:104C1800F08100002DE9F042082288B0FFF711FE6C
:104C2800CB6A03930B6B04934B6B05938B6B0693C7
:104C3800CB6B07930C4681460027134669466A46A4
:104C48006846CDE901770097FFF7CEFB08230546B4
:104C58006A4649464846FFF7C7FB236B0393636BD5
:104C68000493A36B0593E36B0544CDE906376A46C5
:104C7800082369466846FFF7B7FB082305446A46D8
:104C880049464846FFF7B0FB236A0093636A0193DD
:104C9800A36A0293A36B0693E36B07930544082367
:104CA8006A4649464846CDE904770397FFF79CFBD7
:104CB800636A0093A36AA26B0193E36A0293049266
:104CC800636BE26B0393CDE90523236A07932E18E0
:104CD80008236A4649464846FFF786FBE36A00937D
:104CE800236B0193636B0293236A0693A36A07936A
:104CF800351808236A4649464846CDE9047703979C
:104D0800FFF7A2FB236B0093636B0193A36B0293E2
:104D1800E36B0393636A0693E36A07932E1A0823E7
:104D28006A4649464846CDE90477FFF78DFB636B31
:104D38000093A36B0193E36B0293236A0393636A63
:104D48000493A36ACDE90537236B0793361A082322
:104D58006A4649464846FFF777FBA36B0093E36B27
:104D6800CDE90137636A0393A36A0493E36ACDE943
:104D78000537636B0793361A08236A46494648463F
:104D8800FFF762FB361A0E4C0FD436B90822494693
:104D98002046FFF762FD01280FD008232246494626
:104DA8004846FFF751FB361AEFE7082322464946E3
:104DB8004846FFF719FB3618F7D408B0BDE8F0826B
:104DC8009CA3070070B514468AB006460D461A46DD
:104DD800214602A80193FFF740FE019B02AA314633
:104DE8003046FFF72AFE02A9019B22460846FFF734
:104DF80024FE019B02AA29462846FFF71EFE0AB098
:104E080070BD2DE9F0478AB01446DDF848A0554634
:104E18001F4615F9046B0096804689462B460246C4
:104E2800214602A8FFF757FD02A952460846FFF798
:104E380014FE534602AA41464046FFF7FEFD53467C
:104E480002AA21462046FFF7F8FD2B464A46394676
:104E580038460096FFF73FFD5246394602A8FFF74D
:104E6800FCFD02A92B46424608460096FFF733FD93
:104E780002A92B46224608460096FFF72CFD2B4632
:104E88004246214620460096FFF725FD5346224616
:104E980049464846FFF7D1FD2B4602AA414620461F
:104EA8000096FFF718FD5346224639463846FFF765
:104EB800C4FD2B464A46394638460096FFF70BFD97
:104EC800324602A92046FFF7BCFC0AB0BDE8F087CD
:104ED8002DE9F0471F46B3F9023013F11F0448BF0C
:104EE80003F13E04DD1D48BF03F10E056611EC1009
:104EF800944275B228BF144689462946FFF75DFCDF
:104F0800224649468046FFF765FAB7F90230B3EB07
:104F1800C40F4FEAC4021FD2D21A08EB860400213C
:104F2800C2F12006A0450ED324372A46414638460A
:104F3800FFF793FC01280FD02B463A464046BDE8C0
:104F4800F047FFF781BA54F8040D20FA02F30B4337
:104F5800236000FA06F1E5E7BDE8F08770B503685D
:104F680013F001060546144605D013460A460146C5
:104F7800FFF73AFA064621462846FFF783FC46B172
:104F880004F18042013A55F8223043F0004345F8D5
:104F9800223070BDF0B50F46A1B006461946384616
:104FA80015461C46FFF714FC28B1304621B0BDE871
:104FB800F040FFF702BC224639466846FFF741FC3D
:104FC800294608A8FFF73DFC10A82146FFF7F5FB86
:104FD800012318A81093FFF7F0FB224608A968469A
:104FE800FFF73BFC30B9224610A93046FFF729FCF1
:104FF80021B0F0BD009BDA0709D421466846FFF7C7
:1050080041FC2246294610A8FFF7A8FFE5E7089BC0
:10501800DB0707D4214608A8FFF734FC22462946B7
:1050280018A8F1E7002823461CDD08AA6946684647
:10503800FFF70AFA21466846FFF724FC224618A91A
:1050480010A8FFF70AFC002805DA10A923462A460B
:105058000846FFF7C9F910A9234618AA0846FFF71A
:10506800F3F9CEE76A4608A8FFF7EEF9214608A843
:10507800FFF708FC224610A918A8FFF7EEFB002846
:1050880005DA18A923462A460846FFF7ADF918A9F4
:10509800234610AA0846FFF7D7F9BFE7004870472C
:1050A80098A307002DE9F04F2DED028BEBB00D46CC
:1050B800769E03901946B6F9023096F9004013F12E
:1050C8001F0848BF03F13E0848F3471808F1FF3BA3
:1050D80022AB002743F82B706AAB03EB8B034AA87B
:1050E80043F8807C43F8607C924696F90120FFF7EC
:1050F80071F996F9012052A81144FFF76BF921467E
:105108004AA8FFF765FB8146002840F0278152A88E
:10511800FFF75EFB0290002840F0228106F1240987
:1051280042464AA94846FFF798FB012840F01A81F1
:10513800424652A94846FFF790FB0128049040F0E8
:1051480011810AAF43464A461AA8FFF723FF029B7C
:1051580047F82B305246294638463346FFF7B8FE03
:10516800394638464B461AAACDF80080FFF7C7FBE8
:105178005AAD4B461AAA4AA912A8CDF80080FFF7E3
:10518800BEFB224628460399FFF75BFBA300059365
:10519800039B05EB840A03EB840106F1440B50469C
:1051A800FFF74FFB594632A8FFF74BFBA3000BEB69
:1051B80003013AA8FFF745FB331D294632AA1AA86E
:1051C800009408EE103AFFF786FB53462A463AA9A0
:1051D80032A80096FFF715FE1AA9084618EE102AFD
:1051E8002346FFF7D7FE1AAA514628463346FFF74B
:1051F800E9FD029BCDE9063B039B41463846CDE9D4
:105208000835FFF7FEFA4146834612A8FFF7F9FA78
:105218005845B8BF584685B2691E09B23846039149
:10522800FFF7E5FA0399071E12A818BF0127FFF731
:10523800DEFA002814BF022000200DF1180A0743E7
:1052480022465AF8271022A8FFF7FBFA0DF1A80BFF
:10525800A30019445846FFF7F4FA1AA82146FFF7A5
:10526800ACFA049B0360023D22AB2DB20393824645
:10527800002D26DA18EE102A234651465046FFF72D
:1052880089FE0398334652465946FFF79BFD03991A
:1052980042464846FFF7E1FA012804D043464A4609
:1052A8000846FFF7D1F8013C64B24AAA23064AD55A
:1052B800029BB3FA83F040096BB0BDEC028BBDE8EA
:1052C800F08F33465246D6F8A47003985946B8472B
:1052D80029460AA8FFF78BFA2946071E12A818BF05
:1052E8000127FFF784FA002814BF02200020074393
:1052F80006AB53F8271019B3224632A8FFF7A1FAD4
:10530800059B3AA81944FFF79CFA014633465246D2
:1053180032A8FFF757FD18EE103A0399009432AA05
:1053280042A8FFF7D8FA039A00965B463AA932A832
:10533800FFF767FD334642AA51465046FFF77DFB0B
:10534800013D2DB294E7039B52F8241053F8243002
:105358004B40029919430291013CA7E73846ABE755
:105368004846A9E70298A7E70369C26893429CBF29
:1053780080681B18013B981A70472DE9F843D0E95B
:1053880002940546A9EB04084068904520440F465E
:10539800144404D904F0A8F8EC60BDE8F883424648
:1053A800A4EB090404F0A0F86868224607EB08019A
:1053B800F0E72DE9F843C5680646894617464FF0D9
:1053C80000083469B3687068A54228BFE418013C36
:1053D800621B5C1BBC4228BF3C46944228BF144653
:1053E80049462844224604F07FF8B3682544AB4276
:1053F80008BF00253F1BA044A144F560E1D1404609
:10540800BDE8F88310B5114C114AA2610223C4E922
:105418000433104BE361A2644FF480530E4A0F49E2
:105428002362E26400231022E01DA3626362E36248
:10543800A3656365E365226504F0B2F80849204670
:1054480004F0AEF82023A37110BD00BFD46D002076
:1054580048A407005C6E00204C6E002051A4070091
:1054680055A4070070B5164B182400FB04451D44CD
:1054780004FB00331646DC6A012C0ED0022C18D02F
:10548800E4B92846FFF770FF864204D8324628461A
:10549800FFF773FF3446204670BD2846FFF764FFC8
:1054A8008642344628BF044622462846FFF765FF51
:1054B800F1E72846BDE87040FFF77BBF0024EAE724
:1054C800D46D0020FFF79EBF41DF7047014B0122DA
:1054D8001A7070477C82002008B5FCF773FBFCF754
:1054E80033F90028FBD1BFF34F8F0549054BCA6834
:1054F80002F4E0621343CB60BFF34F8F00BFFDE7B8
:1055080000ED00E00400FA0508B50948094B0A490E
:10551800C01AC008000440F00400FCF78BFA074BDF
:10552800074800221A70BDE8084002F09DBB00BF82
:1055380060960700609607005CA407007C82002044
:10554800E154070008B50748074B0849C01AC008C6
:10555800000440F00300FCF76DFABDE80840FFF7CF
:10556800D3BF00BF609607006096070072A40700CB
:10557800042810B5044609D802280DD812D00B4BC0
:105588001B6893B12046BDE810401847831F012BC4
:10559800F5D8FFF7B9FFF2E705494FF4701000F0AE
:1055A8000BFBECE702F058FAE9E710BD8082002017
:1055B8004D55070008B543090CBF4FF0FF330023D2
:1055C80000F01F0023FA00F0C30704D403494FF486
:1055D800F670FCF7A7FD4FF0A04008BD00A2070039
:1055E80008B50648064B0749C01AC008000440F031
:1055F8000400FCF71FFA002008BD00BF60960700F2
:105608006096070086A40700F8B5724B724C734980
:10561800E41AE408240444F0040605463046FCF77E
:1056280009FA6F4B10201D60FFF7C4FF6D4BC0F8DF
:105638004037002002F02EFB002840F0C58000F023
:1056480075FC012800F0B980022800F0BF8000280E
:1056580040F0BA804FF08043D3F8005415F48035F9
:105668004BD04FF48032C3F8002405465E4F3B6AA6
:10567800012B55D05D4944F00300FCF7DBF95C4988
:105688003046FCF7D7F94FF4701400F0A3FD594ADF
:1056980020211820FCF712FC08B1FEF743FE4FF05A
:1056A8008043D3F81C2502F0F802B02A09D1D3F8B8
:1056B8001C25D20742BFD3F81C2502F04E02C3F8BE
:1056C8001C25FFF78DFF00287ED120464A4900F0AF
:1056D80073FA4A4800F05CFF002875D14849304603
:1056E800FCF7A8F900F0BCFDFCF774FCFCF72CF8FB
:1056F8000028F7D1FFF7E8FEF4E7D3F8202502F0F9
:10570800F802A82A0AD1D3F82025D00706D5D3F85D
:10571800202502F05602C3F82025A7E70125A5E7B2
:105728004FF440535A68374B9A420FD17A6B1DB9E0
:1057380097F86032012B09D033484FF4805103F0B9
:10574800FDF818B9314944F0020096E702F0C6FBAB
:10575800BA6901461DB997F8A132012B05D02C482A
:1057680003F0ECF808B92B49EDE72B493046FCF774
:1057780061F91020FFF71EFFD0F81035D90301D4C6
:1057880026497DE74FF08043D3F81C3513F0B10F5D
:1057980001D0234974E702F0F9FAA8B9214D28701D
:1057A800214802F061FA2B7823B920494FF402709E
:1057B800FCF7B8FC00F03EF801E0FFF7A5FE1C4935
:1057C80044F00100FCF736F90320F8BD4FF4A0249B
:1057D8005BE700BF6096070060960700A0A407007B
:1057E800808200200C000300509A0020B7A4070014
:1057F80055A507005C7E00204D5507007955070028
:10580800C4A50700DBE5B151B09C0020E5A4070062
:10581800F19C002020A5070048A5070078A50700EF
:1058280097A507007C820020D5540700D4A507005F
:10583800B8A5070037B5184B184C194D1949E41A83
:10584800E408240444F004004FF480520190FCF76B
:10585800F5F8D5F8802014490198FCF7EFF84FF0D7
:10586800FF33C5F88030C5F88031C5F88430C5F8F5
:10587800843101F0A9FD20B10C4944F00100FCF786
:10588800D9F8FBF761FF0028FBD14FF4805003B033
:10589800BDE8304000F03CB860960700609607000D
:1058A80000E100E029A607005FA6070089A6070017
:1058B80080F30888084770B5C1F30B0434BBB0F512
:1058C800FE2F23D84B1E1B0B020B03EB10310126B6
:1058D8004FF08040914201D2204670BD02F01F0374
:1058E800550906FA03F3032D05D8DFE805F002068B
:1058F800090CC0F800360132ECE7C0F80436FAE7C4
:10590800C0F81036F7E7C0F81436F4E70724E3E7E1
:1059180038B504462648C0F5FE21FFF7CCFF0546FA
:1059280068B12448244B25491B1ADB081B0443F0A3
:1059380001002A46FCF782F82846FEF7F3FC02F03D
:10594800CDFA1F4B9B6903F6FF7323F47F6323F0A3
:105958000F0319180020FFF7AEFF054668B1154878
:10596800154B18491B1ADB081B0443F001002A4693
:10597800FCF764F82846FEF7D5FCEFF30582002310
:10598800D4E9005483F3148883F3108883F31188CF
:1059980083F31388C2F308021AB10B495820FCF7A5
:1059A800C1FB21462846BDE83840FFF781BF00BF4C
:1059B800001007006096070060960700BEA6070063
:1059C800509A0020F5A6070029A7070073B5274BB2
:1059D800064627481B1ADB081B040C463246254995
:1059E80043F00400FCF72AF8B4F1807F39D3224948
:1059F8008F20FCF797FB6FF07F41A14228BF21461B
:105A08001E4B641AD3F80455631E942B96BF963424
:105A1800746074600D44347B25F07F4598BF963DD3
:105A2800032C03D914497720FCF77CFB134E04F5AB
:105A3800A8734FF4F86046F82350114B43F0010364
:105A48009847104BA200134400221A601B68019368
:105A5800019B4FF4803303FA04F4C6F8044302B000
:105A680070BD952CC7D804499020C2E760960700FE
:105A7800609607008EA70700A4A707000040024011
:105A880030A80700404102401FB518490B7853BBA6
:105A98004FF08043A024D3F81824D2035CBF01221E
:105AA8009A60134B0022C3F80021D3F80001039039
:105AB8000398C3F84021D3F8400102900298C3F834
:105AC8004421D3F84401019001980A4880F82443FE
:105AD800102444600220C3F8082501229A601A6045
:105AE800C3F804030A7004B010BD00BF8882002008
:105AF8000040024000E100E0264B2DE9F743D3F8CF
:105B0800042152B124490A6801320A600022C3F80C
:105B18000421D3F804310093009B204D204B214CE5
:105B2800214EDFF89080DFF86C90204FED1AED08D9
:105B38002D0445F004053368CBB100233360336886
:105B48000193224641462846019BFBF777FF227BBB
:105B580017494FF480339340C9F808332246284642
:105B6800FBF76CFF616851B12046FFF72FFF043641
:105B7800BE4204F11004DED103B0BDE8F083A16891
:105B880011B12046FFF722FF2368002BEFD098477A
:105B9800EDE700BF004002408482002060960700C5
:105BA8006096070084590020404102404841024065
:105BB80016A8070004A80700F8B5114B114E0446B3
:105BC800114837681B1ADB081B043A4643F00400E7
:105BD8000D460E49FBF732FF3A7B4FF48033934072
:105BE8000B4AC2F808334CB13668FFF74DFF3560F1
:105BF80021463046BDE8F840FFF7E8BEF8BD00BFD3
:105C080060960700A45900206096070004A80700C2
:105C18000040024070B5074B1D6804460E46A86058
:105C2800FFF732FF2E6021462846BDE87040FFF797
:105C3800CDBE00BFA8590020034A044B1068D3F812
:105C4800043503EB00607047848200200040024066
:105C5800014B01221A707047898200202DE9F34117
:105C6800274FFB6A7E6ABC6CAC2B31D17B6B1C4422
:105C7800F61A244B244D254A25490096ED1AED08BD
:105C88002D0445F0040823464046FBF7EAFEFB6A6C
:105C9800AC2B23D01D483246214603F0EEFB28B337
:105CA8001C49334622464046FBF7D1FEFBF74CFD24
:105CB8000028FBD100F0D4FA2046314601F066FBFB
:105CC8000446C0B1144945F00100FBF7B3FE12E0E9
:105CD800002CCED102F016F90446CAE70B4832462A
:105CE800A4F5804103F0C9FB0028D3D10B494046F5
:105CF800FBF7A0FE0024204602B0BDE8F08100BFFB
:105D0800509A002060960700609607000010070070
:105D180036A807006BA80700CFA8070098A80700B7
:105D28002DE9F04F3C4B16463C4A9B1A87B0DB08DE
:105D38001B04814205460F46049343F0040B08D127
:105D480037495846FBF776FE0024204607B0BDE8E1
:105D5800F08F03D233494F20FCF7E4F936B1C5F38D
:105D68000B031BB12F495320FCF7DCF97B1BB3F560
:105D7800805F4FEA133403D22A495720FCF7D2F93F
:105D880000F028FA082C28BF082406F6FF79230318
:105D98004FEA1939039405930EB93446D5E7039BA6
:105DA8004B453ABFDDF80CA0DDF81480CA464FF029
:105DB80000025146284628BFB04601F0A1FA044621
:105DC8000028C2D11849CDF800802B463A465846DB
:105DD800FBF747FE08F10302234622F00302394687
:105DE800284601F04FFA04460028AED10F4A136B3B
:105DF8004344136301F03EFFA9EB0A09A6EB08062A
:105E08004544474404460028C6D0049B084943F04B
:105E18000100FBF70FFE98E7609607006096070001
:105E2800E9A80700F8A807005BA90700509A002016
:105E38007CA907002DE9F74302F074F8314C324B86
:105E4800DFF8E4903149D9F84860D9F83080D9F8BA
:105E58003450E41AE4082404074644F0040001908E
:105E6800FBF7E8FD06F5005301985A68284B9A425B
:105E780009D0284944F00100FBF7DCFD032528463A
:105E880003B0BDE8F083D9F83030AB421E4404D1EA
:105E98002149FBF7CFFD0025F1E7C3B94FF4405284
:105EA8001178142982BF1D495269B2FBF1F206F537
:105EB800005198BF1A4691F800C0BCF1140F82BF78
:105EC8004969164BB1FBF3F31549FBF7C0FDA5EB88
:105ED800080202F6FF7222F47F6222F00F023146B6
:105EE80007EB0800FFF71CFF054628B10D4944F0F1
:105EF8000100FBF79FFDC2E703B0BDE8F04301F0E6
:105F0800B9BE00BF6096070060960700B5A90700F4
:105F1800DBE5B151DAA907000EAA070040420F00DD
:105F280020AA070049AA0700509A00202DE9F04747
:105F3800624B634D634E6449ED1AED082D0445F03C
:105F480004073846FBF776FDF36AAA2B00F09A801F
:105F58000CD8012B22D0A52B00F0888045F0030037
:105F68005A49FBF767FD0020BDE8F087AC2BF5D157
:105F780057493846FBF75EFD56493846FBF75AFD48
:105F8800FFF758FF0446002800F08680524945F084
:105F98000100FBF74FFD4FF0010823E04F49384659
:105FA800FBF748FDD6F82490D6F848A001F096FFF4
:105FB800346B4B4900EB04083846FBF73BFD316B6B
:105FC8005144884514BFA9EB040200224046FFF75C
:105FD800A7FE044670B1434945F00100FBF72AFDCE
:105FE8004FF00008F36A4049224645F00100FBF7EC
:105FF8002EFD13E001F072FF22464946FCF776F8C1
:10600800B26A904280462AD138493846FBF712FDD9
:106018000123C6E90783C6F81890A0463448DFF87C
:10602800F49001F04FFF0023324889F8003001F066
:1060380021FE99F80030044623B92F4940F2A510F3
:10604800FCF770F88CBBB8F1000F35D0336A012B20
:1060580032D138462949FBF7EDFC022084E7034694
:10606800274945F00100FBF7F2FCD6E725493846F9
:10607800FBF7E0FCFFF7DEFE4FF001080446002CBA
:10608800CCD0AFE720493846FBF7D4FCFFF7E6FD54
:106098004FF000080446F2E7FFF7E0FD044608B1B8
:1060A8001A4974E74FF00108B8E745F001001849AC
:1060B800FBF7C0FC032057E7012055E7609607006F
:1060C80060960700509A002062AA07006EAB07008E
:1060D80017AB070025AB070042AB070083AA0700F0
:1060E8008DAA070049AA070087AB0700A8AA0700DE
:1060F800749A0020595C0700F8A80700B9AB07009C
:10610800BDAA070005AB07000EAB070058AB070098
:1061180015AC07008982002010B50024D4F8F83F98
:10612800013304D1084940F6F870FDF755F9D4F861
:10613800FC3F013307D1BDE810404FF4FC2140F685
:10614800FC70FDF749B910BD001007000A4AD2F8E3
:1061580000347BB109480023D2F80815D940C90793
:1061680048BF03F5C07103F1010348BF42F821009D
:10617800072BF1D1704700BF000001403546526E31
:1061880008B50748074B0849C01AC008000440F082
:106198000300FBF74FFCBDE80840FFF7D7BF00BF7F
:1061A80070960700609607002FAC070007B5084BEC
:1061B8000022C3F80021D3F800310193019BFBF7BB
:1061C80001FDFBF7C1FA0028FBD103B05DF804FB21
:1061D8000000014037B5194D2B784BBB18481949B9
:1061E800194B401AC008D3F80024000440F00300FB
:1061F80002B3D3F80445154901902246FBF71EFC6B
:1062080040F616529442B8BF1446A4F54864FFF706
:106218009DFF01980E492246FBF710FC0D492046C8
:10622800FFF7F8FC0C4B4FF480321A6001232B70F7
:1062380003B030BD0949FBF7FDFBF7E78A82002070
:106248007096070060960700000001403DAC07000B
:1062580056AC07008961070000E100E088AC070040
:10626800034BD3F800340BB1FFF770BF704700BF82
:10627800000001404FF08053D3F83001421C04BFA6
:106288004FF0704393F8E00F831F5842584170470E
:106298004FF0704393F8E02F062A09D1D3F8E83F6E
:1062A800C3F30313033B032B02D8024AD05C7047A5
:1062B80000207047B6AC070008B5FFF7DBFF40B118
:1062C8004FF080538F4AD3F82433C3F30423C2F822
:1062D8004035FFF7DDFF10B18B4B8C4A5A67FFF74B
:1062E800C9FF48B14FF080534FF08042D3F8443291
:1062F800C3F34233C2F83C35FFF7CAFF30B1844AD2
:10630800D2F8FC3023F08073C2F8FC30FFF7B2FFFC
:1063180040B14FF080430022C3F80C21C3F810218C
:10632800C3F83825FFF7B4FF20B14FF080430322AC
:10633800C3F8A025FFF7ACFF60B1764B0522C3F880
:1063480010260122C3F888260022C3F818263F2207
:10635800C3F814264FF08053D3F83021511C09BFDD
:106368004FF07043D3F8343193F8E02FD3F8E83F77
:1063780008BFC3F30313062A4DD1033B032B03D8ED
:10638800654AD35C002B46D04FF08052634BD2F85D
:106398000414C3F82015D2F80814C3F82415D2F849
:1063A8000C14C3F82815D2F81014C3F82C15D2F819
:1063B8001414C3F83015D2F81814C3F83415D2F8E9
:1063C8001C14C3F84015D2F82014C3F84415D2F8A9
:1063D8002414C3F84815D2F82814C3F84C15D2F879
:1063E8002C14C3F85015D2F83014C3F85415D2F849
:1063F8003414C3F86015D2F83814C3F86415D2F809
:106408003C14C3F86815D2F84014C3F86C15D2F8D8
:106418004424C3F87025FFF72DFF48B14FF080538F
:106428004FF08042D3F8583203F04F03C2F8E43EED
:10643800FFF720FF48B14FF08043D3F80024D2077C
:1064480044BF6FF00102C3F800244FF08053D3F823
:106458003021062A0ED1D3F83431033B032B02D85E
:106468002F4AD35C33B12F4AD2F83C3743F48063C8
:10647800C2F83C37264AD2F8883043F47003C2F891
:106488008830BFF34F8FBFF36F8F4FF01023D3F8CF
:106498000022002A03DBD3F80432002B2EDA224B29
:1064A8000122C3F80425D3F80024002AFBD04FF0BA
:1064B80010221521C2F80012D3F80024002AFBD0BC
:1064C8004FF010231522C3F80422174BD3F80024E9
:1064D800002AFBD00022C3F80425D3F80024002AA0
:1064E800FBD0BFF34F8F0A49104BCA6802F4E06231
:1064F8001343CB60BFF34F8F00BFFDE70C4B0D4A32
:106508001A6008BD0030014000C007400DF0ADBA68
:1065180000ED00E000500040AEAC070000C00040B5
:10652800B2AC07000010004000E001400400FA058A
:10653800AC5900200090D00313681F2B10B51446E7
:1065480007D900220830FCF7A4FE08B920232360ED
:1065580010BD48F21450FBE70830FCF777BE08304E
:10656800FCF744BE008800F001007047831F012B30
:1065780010B5044602D8002001F06AFC034B1B68E2
:106588001BB12046BDE81040184710BD8C82002082
:1065980038B5104B104C1860104B1149E41AE40838
:1065A800240444F00300FBF745FA0020FFF7DEFF60
:1065B8000C4801F013FC054620B9BDE838400948ED
:1065C80001F0C0B90246084944F00100FBF736FA69
:1065D800284638BD8C820020609607006096070028
:1065E80088AE0700756507009BAE07006CDF704733
:1065F8006DDF704772DF704773DF704774DF704775
:1066080075DF704776DF70477ADF70477CDF704749
:106618007DDF70477FDF704786DF70478FDF704709
:1066280090DF7047A8DF7047AADF7047ADDF70477B
:10663800AEDF7047B0DF7047B1DF7047B5DF704736
:1066480062DF704766DF704713DF704710B5094B8C
:106658000949044609481B1ADB081B04224643F073
:106668000400FBF7EBF921460548BDE81040FBF7AD
:10667800D9BE00BF78960700C5AE07006096070030
:10668800E496070070B518228CB00DEB02000021CB
:1066980002F053FF282308932348244B2449254C10
:1066A800C01AC0080004012540F004008DF81850F5
:1066B8008DF82D50FBF7BEF91623ADF806300023F0
:1066C800CDE903330593022306222370237159234E
:1066D8000926A27063710322FE236570E270A3711C
:1066E8000DF10601A0190294ADF80C60FFF790FFB8
:1066F800B8B9BDF8063026725A19E271BDF80C20F7
:106708000D4C134402A906AA2046ADF80C30FFF739
:1067180071FF30B92078FFF771FF20782946FFF71D
:106728006BFF0CB070BD00BF78960700609607003D
:10673800D7AE07000E930020B0590020F0B50388AB
:10674800242B8FB0044651D80BB90FB0F0BD013BD4
:10675800232BFAD801A252F823F000BF556B07008B
:10676800536707005367070053670700536707001D
:10677800536707005367070053670700536707000D
:1067880053670700536707005367070053670700FD
:106798005367070053670700256807006968070003
:1067A8000D6A0700C1690700656C07005367070099
:1067B80053670700536707005367070053670700CD
:1067C800876C070053670700536707005367070084
:1067D80053670700496A070053670700A76A07005D
:1067E800896A070075690700A3690700503B9AB2D8
:1067F800062AAAD8062BA8D801A252F823F000BF6F
:1068080097680700616B0700876C070053670700EC
:10681800536707001D690700CF6A0700AF4BB04DEB
:10682800B049B14EED1AED082D0445F00400FBF710
:1068380001F9A3883380AD4B1B680BB10120984741
:10684800AB493088FFF7DCFE024600283FF47DAFF5
:10685800A84945F001000FB0BDE8F040FBF7EEB8DD
:10686800A14B4FF6FF721A80A34B1B685A0704D43A
:10687800FFF708FF08B1FDF755FD9C4B1B68002B7F
:106888003FF463AF02200FB0BDE8F04018479B4FBC
:10689800E288BB889A427FF458AF9948904DFBF73D
:1068A80095FD8E4BED1AED082D04064638B995492D
:1068B80045F002000FB0BDE8F040FBF7BBB8F42389
:1068C8000093238A9049024645F00400FBF7C9F873
:1068D800228A04F11201304602F006FE1822002135
:1068E80008A802F02AFE08238DF82030874B0A9367
:1068F800874B0997CDE90B3608A8238AADF83430C1
:1069080001F000F800283FF420AF7D483146FBF73E
:1069180089FD1AE7E288F62A24D8D31E9B0723D0DC
:10692800D31F9BB2013B594201F0030103F003035B
:1069380002F1FF3458BF4B42E31A9CB2674B6848D8
:106948007449C01AC0080004234640F00400FBF74D
:106958007EF8654B21461888FFF770FE00283FF443
:10696800F4AE88E0F724E9E71446E7E75B4B5C48B8
:106978006949C01AC008000440F00400FBF75AF83F
:106988000022A08808A9CDE90822FFF749FE0028BF
:106998003FF4DBAEFDF7C6FCD7E6504B50486289A2
:1069A8005E49C01AC008E389000440F004000FB033
:1069B800BDE8F040FBF74BB8484B494C58494A4DA5
:1069C800E41AE408240444F004042046FBF732F8EF
:1069D80002230893288806AB08AA42F605210993E2
:1069E800FFF724FE08B1FDF79DFCBDF818204D49BE
:1069F8002046FBF723F8002328881A468521FFF74D
:106A080009FEC4E7354B36484749C01AC008000498
:106A180040F004000390FBF70DF86289434903989E
:106A2800FBF70CF8228942490398FBF707F8A2897B
:106A380040490398FBF702F8E2893F4903980AE7BF
:106A4800264B274D3D49ED1AED082D0445F004006D
:106A5800FAF7F0FF244B04F108011888FFF7D0FD7E
:106A6800044600283FF471AE0246354945F001005E
:106A7800FAF7E4FF20460FB0BDE8F040FDF752BC3E
:106A8800164B17482F49C01AC008237A00930004F0
:106A9800637AA27A40F00400FAF7E3FF55E60F4B59
:106AA8000F482949C01AC008000440F00400FAF74A
:106AB800C1FF0023A0888DF8203008A98DF8213067
:106AC800FFF7ACFD63E7A379002B7FF43EAE064BDE
