:020000022000DC
:1060000000000120756302005D6302005F6302000F
:106010006163020063630200656302000000000028
:1060200000000000000000000000000067630200A4
:1060300069630200000000006B6302006D630200F0
:10604000858B02006F630200958F02006F63020070
:106050006F6302006F630200498E02006F630200EB
:106060006F6302006F6302006F6302006F630200E0
:106070006F6302006F6302006F6302006F630200D0
:106080006F630200297B02006F6302006F630200EE
:106090006F6302006F630200D1BF02006F630200F2
:1060A0006F6302006F6302006F6302006F630200A0
:1060B0006F6302006F630200000000000000000038
:1060C0006F6302006F6302006F6302006F63020080
:1060D0006F6302006F6302006F6302000000000044
:1060E00000000000000000000000000000000000B0
:1060F00000000000000000000000000000000000A0
:10610000000000000000000000000000000000008F
:10611000000000000000000000000000000000007F
:10612000000000000000000000000000000000006F
:10613000000000000000000000000000000000005F
:10614000000000000000000000000000000000004F
:10615000000000000000000000000000000000003F
:10616000000000000000000000000000000000002F
:10617000000000000000000000000000000000001F
:10618000000000000000000000000000000000000F
:1061900000000000000000000000000000000000FF
:1061A00000000000000000000000000000000000EF
:1061B00000000000000000000000000000000000DF
:1061C00000000000000000000000000000000000CF
:1061D00000000000000000000000000000000000BF
:1061E00000000000000000000000000000000000AF
:1061F000000000000000000000000000000000009F
:10620000354936480A1A02D0072291438D4634494F
:1062100034480A1A06D00722914381F309880222E2
:1062200082F3148830483149314A00F044F831484B
:106230003149324A00F03FF831483249324A00F0E1
:106240003AF832483249334A00F035F83248334997
:10625000334A00F030F833483349344A00F02BF821
:1062600033483449344A00F026F83448344900228F
:1062700000F02CF833483449002200F027F8334866
:106280003349091A082902DB002202604160314AC1
:1062900090471F481F49884205D00268043003B464
:1062A000904703BCF7E700208646EC46002000211B
:1062B000294A9047FEE7884207D0521A05D0037852
:1062C00001300B700131013AF9D17047884202D098
:1062D00002700130FAE770470000012000E0002062
:1062E0000000012000000120ACE90200A82B0020E2
:1062F000102C0020D0630200D0630200C0D0020046
:10630000ACE90200A82B0020A82B0020DCD1020061
:10631000DCD10200DCD10200DCD10200DCD10200C1
:10632000DCD10200DCD10200DCD10200ABE90200CA
:1063300014EA0200102C0020102C0020102C002049
:106340008C3F00208C3F00208C3F00208C3F0020A1
:106350008C5F00209D63020009A40200FEE7FEE7B7
:10636000FEE7FEE7FEE7FEE7FEE7FEE7FEE7FEE705
:1063700000F002B8FFF7FCBF0F484FF00701884359
:1063800085460E4880470E48016841F4700101605F
:10639000BFF34F8FBFF36F8FFFF732BF09480A4932
:1063A0000A4A884207D0521A05D0037801300B7090
:1063B0000131013AF9D17047000001203585020012
:1063C00088ED00E0DCD10200A82B0020A82B0020E3
:1063D0007047000007B5044B0093044A402300F0C7
:1063E00032F803B05DF804FBF1630200112C0020C9
:1063F0002DE9F84388461446B2B10F4B0F4E0325E2
:10640000002743F00109224608EB0701002004F0B1
:10641000CBF90744241A48B933782BB14FF47A40AA
:10642000C847013D02D13570BDE8F88301233370C0
:10643000002CE8D1F8E700BFE0D10200102C0020CA
:10644000704704F0E1B9F0B595B01D461646084610
:106450000C4601F017FF1A9B0D93CDE90865002546
:106460002B460C2205A920460A958DF82C500C9538
:1064700001F024FF079B0293069B03939DF81430C1
:106480008DF8115003F00302012A1DD1BDF814202C
:10649000059DC3F3C203C2F383168DF81030B2001A
:1064A0000C230EA9204601F009FFC5F3952508AB82
:1064B0000093324602AB0EA9284600F0F3FB2046BB
:1064C00001F0E4FE15B0F0BD022AF8D1BDF8165077
:1064D000C3F3C203C5F389158DF810300C27082DBE
:1064E0002E4628BF08263B4632460EA9204601F01C
:1064F000E5FEAD1B08AB02AA31460EA8374400F0FA
:1065000035FC002DEBD1DAE708B5FFF79AFF044818
:10651000042100F001FB034B01225A7108BD00BFAA
:10652000CCD10200A82B0020037813F0040216D06F
:1065300003F00303012B03D0022B09D00120704785
:106540000A6800880332C0F3831002440A60F5E74A
:106550000B684288033303EB92130B60EEE710469F
:10656000704700002DE9F04FDFF818A187B00F4603
:1065700000230446C61C0DF1070015468DF80730B0
:1065800001F064F9DAF804203A60DAF8083003F52B
:1065900080739B1A0AF21C470AF583690AF21448B1
:1065A000B3421AD30020002D68D004F00F039B01E2
:1065B00043F0050363F30F00DAF80430DAB2033274
:1065C00033444AF822009DF80700CAF8043001F06D
:1065D00061F9012007B0BDE8F08F0121384601F0D4
:1065E00080FB484601F095FB404601F092FBDAF84B
:1065F00008000290C0B203300AEB800002A9FFF746
:1066000093FF029B08B1D8B2F5E7DAB20AEB820237
:10661000591CD2680392C9B20AEB810102F003024D
:106620000333012AC96802931ED0022A24D1BDF87F
:106630000E20C2F3891203324FEA114B03EB92038F
:106640000293404601F068FB10B1029BCAF8083083
:106650005946384601F045FBDAF80830DAF80420EC
:1066600003F580739B1A9BE7BDF80C20C2F38312DD
:106670004FEA114B1344E3E78346E2E7A40544F0F5
:10668000060099E7242D002038B50446084684B159
:10669000094D00232B7000F0C5FB0848C5F80C44D9
:1066A00001F0A9FD044610B9054801F0ABFE2046F3
:1066B00038BD0724FBE700BF242D002030D10200A5
:1066C0001CD2020030B50A4C71B10A4A0A49121BA9
:1066D000D20800239A4201D1002030BD31F8235066
:1066E000854202D00133F5E7034654F83300F4E75E
:1066F00044D10200CCD10200A82B0020094B013963
:1067000003EBC000032909D8DFE801F00A02040600
:106710000420704700797047407970470020704727
:106720000220704744D10200034BD3E90130C31A61
:1067300058425841704700BF242D00202DE9F041F8
:1067400086B0FFF7F1FF0546002840F0F4807B4C4F
:10675000C4F81804BFF34F8FA3680293DBB203336E
:1067600004EB830002A9FFF7DFFE029B50B1D4F8CF
:1067700018243AB962689A42F0D8A260284606B056
:10678000BDE8F081591CC9B204EB8101DAB2C968D5
:10679000049104EB8202991CD2680392C9B20333BC
:1067A00004EB8101029302F00303C9680591022BF7
:1067B0004DD1BDF80E306248C3F38917502F3E46C5
:1067C00028BF502606F10C0166F38F13C1F30901AF
:1067D000ADF80E3001F027FD0546002800F0968048
:1067E00001F050FD0C220DEB02012846002301F0C0
:1067F0005BFD0299C843C0B20130C9B20331B6EBA8
:10680000800F4FEA800204EB81011DD95FFA82F804
:106810000C23A6EB0806284601F046FDF6B208F167
:106820000C03484903F0FC033246284601F03CFDC6
:10683000029B033703EB97070297D4F81834002B19
:106840003CD1D4F810644CE00C233246EDE7012B28
:106850005CD1BDF80C303A48C3F38311062928BF38
:10686000062161F38913033101F00F018900ADF8AE
:106870000C3001F0D8FC0546002847D001F002FD9D
:106880000C2200230DEB0201284601F00DFD00262D
:10689000BDF80C20C2F38312B300964203F10C033F
:1068A000CBD202994A1CC9B20331029204EB810196
:1068B0000422284601F0F8FC0136E9E7284601F0F9
:1068C000E5FCFFF731FF80F00100C5B256E7F36841
:1068D0005B7923B1336829461B6830469847F368D3
:1068E0001E68002EF3D1284601F0D0FC0DF1070000
:1068F0008DF8076000F0AAFFD4F818340BB9029B9A
:10690000A3609DF8070000F0C5FFDAE7D4F8104453
:1069100054B90D4B0D480E49C01AC008000440F090
:10692000020000F065F8CCE7236820469B68984792
:10693000E3681C68ECE7002520E700BF242D002059
:1069400030D10200302D002044D102006CD1020071
:1069500004D202002DE9F34704460E46924601A9EF
:10696000012218469946FFF7FDFD1F4F50B3019DC8
:106970004FF00008EA1CC84508EB02012BD10021AA
:106980001A4801F07FF980F310006B1CDBB207EBB3
:106990008303000440EA1440D860E400D7F80C34C4
:1069A000984704F03804AB1CDBB2EDB244F00104AC
:1069B00007EB8303033544EA881444EA8624D8604D
:1069C00047F825403B781BB1FFF7B8FE0028FBD104
:1069D00002B0BDE8F087C9B207EB81015AF8283050
:1069E000CB6008F10108C6E7242D002040310020CB
:1069F00000231A46FFF7AEBF07B50123019201AA93
:106A0000FFF7A8FF03B05DF804FB07B5CDE900234D
:106A100002236A46FFF79EFF03B05DF804FB1FB533
:106A2000CDE90123069B039301AA0323FFF792FFFD
:106A300005B05DF804FB7FB5CDE90123089B039306
:106A4000099B04930A9B059301AA0523FFF782FF84
:106A500007B05DF804FB00002DE9F7430446D01CA5
:106A60008846164601A900228008FFF77BFD284DC5
:106A7000002838D0019FF81C0190C0B2C0F5807387
:106A8000B6EB830F00F103004FEA830905EB8000AA
:106A900032D83246414605F046FFD5F80C349847C7
:106AA000BB1CDBB205EB83030021D860194801F061
:106AB000E9F880F310007B1CDBB2FFB2220C05EB7F
:106AC0008303033742EA0040E400D86004F038044E
:106AD00055F8273044F0020444EA865203F47C134C
:106AE0001A4345F827202B781BB1FFF727FE002813
:106AF000FBD103B0BDE8F0834A46414605F013FFE1
:106B0000A6EB090208EB090105F10C00C3E700BF81
:106B1000242D00204031002030B50F4CD4F8102433
:106B200003460020114631B9D96808714AB9C4F842
:106B300010340A6030BDC9680D79854206D00968F5
:106B4000F1E7D26814680C601360F3E701300A289B
:106B5000E8D14FF0FF30EDE7242D002038B5084B89
:106B60000125D3F810441D7004B938BDE3685D7188
:106B7000236820465B689847E3681C68F4E700BF19
:106B8000242D0020F0B5C38887B005460E4633B1EA
:106B9000294A009229492A4A304601F020F9297AE7
:106BA000052946D06B7A4BB1A888FFF7A7FD254B86
:106BB000254953F82020304601F011F9234B2C6869
:106BC0001B68B4FBF3F4224B1868B4FBF0F34FF4EA
:106BD0007A7E00FB13444FF461610EFB04F4B3FBB7
:106BE000F1F23C2701FB1231B4FBF0FCB1FBF7F3EF
:106BF00000FB1C4407FB13110EFB04F40091B4FBD3
:106C0000F0F41449CDE901C4304601F0E8F82A7ADD
:106C1000114BA88853F8222005920021FFF752FD5E
:106C2000059A0E490346304607B0BDE8F04001F032
:106C3000D6B807B0F0BD00BF48D2020030D2020083
:106C400028D20200D8D202004DD20200E03100204A
:106C5000DC31002050D20200FCD202006CD20200D3
:106C600007B503460846197A052911D05B7A2BB17E
:106C7000094A0A49019001F0B2F8019808490190C7
:106C800001F0ADF8019803B05DF804EB01F09CB899
:106C9000002AF8D0F2E700BF48D202004DD202002D
:106CA000D9DC02002DE9F04385B01F460C9D00237E
:106CB00095F80C902B7306460C46904629463846AC
:106CC000FFF760FFB8F1060F09D8DFE808F00412FB
:106CD000181F283340003146284601F080F8002272
:106CE00029463846FFF7BCFF85F80C9005B0BDE893
:106CF000F08322683146284601F071F8EFE7D4E9C5
:106D000000233146284601F06AF8E8E7A3680093BB
:106D10003146D4E90023284601F061F8DFE7E36853
:106D20000193A36800933146D4E90023284601F07B
:106D300056F8D4E723690293E3680193A3680093AC
:106D40003146D4E90023284601F049F8C7E76369D2
:106D5000039323690293E3680193A3680093314688
:106D6000D4E90023284601F03AF8B8E708292DE9CC
:106D7000F74F80460E4617461C463CD8002593F830
:106D80000C901D7319461046FFF7FCFEDFF888A033
:106D9000DFF888B0AE4231D918F8052059462046B0
:106DA00001F01DF80135082DF4D11949194DDFF80E
:106DB00070A0204601F013F84FF0000B5E4522D979
:106DC00018F80B207E2A05D81046019205F074FDB4
:106DD000019A00B92E225146204601F000F80BF12D
:106DE000010BBBF1080FE9D1012221463846FFF71C
:106DF00037FF84F80C9003B0BDE8F08F5146204671
:106E000000F0EDFFCEE72946204600F0E8FFE6E778
:106E100080D202007ED202007CD2020076D2020032
:106E200082D20200084A10B50123084C13600021E9
:106E3000A04204D801B11360054B186010BD400892
:106E40005B000121F4E700BFE031002040420F0069
:106E5000DC310020C30710B507D4F023054A4008F1
:106E6000145C23401943115410BD0901C9B20F230A
:106E7000F4E700BF1832002030B5094B1C78094BED
:106E8000196800239C4202DC0022104630BD11F834
:106E90003350854201EBC302F7D00133F2E700BF64
:106EA000E43100202832002013B504460191FFF799
:106EB000E3FF38B143682BB10199204602B0BDE829
:106EC0001040184702B010BD034B04481968002257
:106ED000490800F0BCBA00BFE8310020F0310020C2
:106EE00010B5C0B2FFF7C8FF0446007801F0A2FF5A
:106EF00063785A1E53425341834208D1044BD3E96D
:106F00000023134303D1BDE81040FFF7DDBF10BDE0
:106F10001032002037B54308374AD35CC2074CBF54
:106F20001B0903F00F0304460D46042B25D8DFE8A8
:106F300003F003262F3C4000F9B10121FFF78AFF3F
:106F400000230DF107008DF8073000F07FFC0120D1
:106F5000A4F12003C4F12001284A20FA01F100FA2B
:106F600003F30B43A040D2E9004120430B43C2E9A5
:106F700000039DF8070000F08DFC03B030BD002930
:106F800018BF0221204603B0BDE83040FFF762BFC2
:106F900049B10321FFF75EFF0121204603B0BDE8A0
:106FA0003040FFF781BF0121ECE70029E5D1042142
:106FB000E8E709B10321E5E7FFF74CFF2946204642
:106FC000FFF772FF0DF107008DF8075000F03EFC4F
:106FD0000120A4F12003C4F12001084A20FA01F1A4
:106FE00000FA03F30B43A040D2E9004124EA000079
:106FF00021EA0303BBE700BF183200201032002053
:107000002DE9F041124E134F00243378A34208DCDF
:10701000114BD3E90023134318D0BDE8F041FFF72B
:1070200053BF3D6805EBC40815F8340001F002FFBA
:1070300098F801305A1E53425341181A41424141B7
:1070400015F83400FFF766FF0134DEE7BDE8F08194
:10705000E43100202832002010320020092AF7B540
:1070600005460C4616463ED901F01CFEE8B11F4B02
:107070001F481D601F4B204F1C70204B0021102209
:107080001E6005F079FC1E4B00200021C3E90001C1
:10709000013CE4B20326FF2C0DD11A4A1A48002104
:1070A00003B0BDE8F04000F0C7B901F0BDFD002815
:1070B000DDD003B0F0BD9DF8063015F834008DF832
:1070C000046005EBC40223F007038DF8063001A924
:1070D00093788DF805303A4601F0EEFD013CE4B2BC
:1070E0000028D8D0E5E70720E3E700BF28320020DA
:1070F00018320020E4310020E16E0200E831002067
:1071000010320020017002001CD3020070B5084D3F
:10711000084E00242B789C4201D3002070BD3368B8
:10712000012113F8340001F03FFE0134F2E700BF03
:10713000E43100202832002082B001238DF807308E
:107140009DF80730114B1860596044F201018842E4
:107150009A6012D044F20201884206D1DA60DA68FD
:1071600012689A61DA685268DA6172B69DF807307F
:10717000002BFBD162B602B070471A611A6992689F
:107180005A611A6912689A611A69ECE72C32002078
:1071900000B583B002900091019244F20100714663
:1071A0006A4600F003F803B000BD0000F0B50646E3
:1071B00087B00F46154672B6FFF7D0FCFFF7BEFA50
:1071C0000028FBD1244B254CE41AE40844F20103C7
:1071D00024049E4244F001042BD00BD8012E14D07D
:1071E00041F201039E4222D01D493A462046FFF754
:1071F00003FC0EE044F202039E42F5D1D5E90032D1
:1072000018492046FFF701FC03E017492046FFF725
:10721000EFFB164BD3F8F030DB0700D500BE2A4653
:107220003946304607B0BDE8F040FFF785BF10494A
:10723000ECE7AA680592104601F048F92968029720
:1072400001916968009103460A49059A2046FFF7B3
:10725000F2FB0949DAE700BF44D102006CD1020019
:10726000B3D302005FD3020020D3020000ED00E0A0
:107270003DD3020079D302009FD3020049B152B13D
:10728000531E1A4007D1826001608380C26010469D
:1072900070470E2070470920704710B58468C26897
:1072A0008388121B934208D3C26813400268D154EA
:1072B000C3680133C360002010BD0420FCE782686E
:1072C000C3689A420AD08268838813400268D35CFC
:1072D0000B7083680133836000207047052070477E
:1072E00010B5D0E90243D1E90202A04272EB0303D8
:1072F0002CBF0120002010BD08B50A4800F0FDFB9E
:10730000094AD2E90031C018084BD3E9002341F102
:107310000001904271EB030303D210F1807041F140
:10732000000108BDB02B002050320020C8320020E0
:1073300037B505460C460A4801A900F012FC60B1B9
:107340000570446001A9064800F035FC18B10548F5
:1073500000F0D8FB002003B030BD0420FBE700BFE5
:10736000B4320020B02B002038B5184B1B780446EF
:1073700013B90025284638BD0028FAD0037F03F052
:10738000FF05002BF5D0FFF7B7FFD4E902239042A9
:1073900071EB030314D3236903B92377D4E90530D0
:1073A000984721690029E4D0237F03F0FF05002BD3
:1073B000DFD0D4E902325B1842F10002C4E90232A4
:1073C0000348214601F03DF8D4E700BF58320020C1
:1073D000DCD3020013B5114B114918680190082342
:1073E0001048582200F0AAFB044698B90E4A0F48EC
:1073F00001A900F073FA044660B90C48012100F0BD
:107400005FFB01230A4A0948194600F0C1FA094BFB
:1074100001221A70204602B010BD00BFD6D3020070
:107420005C320020B432002099740200B02B00209E
:10743000FFFF7F00583200203AB103685A614A1EAC
:10744000514251411961002070470720704738B5FB
:10745000037F04460D4683B98261FFF74DFF236920
:10746000281841F10001C4E9020103B12561214658
:107470000020BDE83840FFF75BBF002038BD002387
:10748000014603770120FFF753BF0000014800F0D9
:1074900034BB00BFB02B00202DE9F347064600F0B7
:1074A00017FB40B1584AD2E9003113F1807341F122
:1074B0000001C2E900310021304600F018FB38B16C
:1074C000524C236823B12068FFF74EFF002323604E
:1074D0000121304600F00BFB20B1FFF70DFF4C4BB4
:1074E000C3E900014B48494D4B4C4C4F01A900F0FA
:1074F00072FB002842D1DFF82081444CDFF8249150
:10750000404600F0B4FF2368002872D07BB12368A6
:10751000D0E90252D3E902138D4272EB03032AD25F
:1075200023681B7F1BB12168404600F08AFF40465C
:1075300000F097FFD0E9027A0546FFF7DDFE381A22
:107540006AEB010A01287AF1000345DBB0F5350F3B
:1075500040D3FFF79BFF324A02444FF496030021C9
:10756000484600F035FA00283ED1236813B930466A
:1075700000F006FA256002B0BDE8F0870378012B21
:107580001DD0022B09D14FF00008204600F069FF02
:10759000002836D080F81C80F7E73BB941680B7FA4
:1075A00023B901230B77204600F04BFF01A91948AE
:1075B00000F03CFB01A9174800F00DFB99E741687A
:1075C0002B68994202D100232B60EFE7204600F0A0
:1075D00051FFEBE7AA68C0E70021484600F07DFABA
:1075E0002846FFF7C1FE01E00D28F9D000232360F3
:1075F00086E7002BBFD1304602B0BDE8F04700F06F
:10760000C3B901233B70D1E750320020D0320020B3
:10761000C8320020B4320020DCD3020058320020EF
:10762000FFFFB400B02B00200648074A0378074943
:10763000D35C012213B1043002F00CB90C3001F01C
:10764000CFBE00BFB82B002044330020FC32002006
:107650000648074A03780749D35C012213B1043076
:1076600002F0AAB80C3001F06BBE00BFB82B0020AE
:1076700044330020FD32002037B50578012D0DD0B0
:10768000022D30D075B91F491F48FFF718FE00289A
:1076900034D103B0BDE83040FFF7DABF037A1BB93D
:1076A000FFF7C2FF03B030BD4368184C197820467D
:1076B000FFF7F3FD80B18DF800500190144B684640
:1076C0001B689847A168E368A2885B1A9A42E7D2D0
:1076D000104B01221A70E5E7A268E3689A42F1D0E4
:1076E0008DF80000EAE7C3688DF800500193FFF7BA
:1076F0009BFF074B68461B689847D3E703238DF829
:107700000030F6E7FD320020EC320020D8320020B5
:10771000D4320020E8320020F0B51F46234B89B058
:1077200004461A600D4600293DD08A882048096821
:10773000FFF7A4FD002834D1AA89A9681D48FFF7E6
:107740009DFD00282DD11C4E0FCE6D460FC596E82D
:107750000F0085E80F0063690693237C174A1848D9
:107760008DF81C70003B18BF01238DF81430637C2A
:10777000002B14BF0E2300238DF81530E36802930D
:10778000A36803932368019369466368009301F03B
:1077900081F930B90B4B18702368013301D0FFF722
:1077A00043FF09B0F0BD0720FBE700BFD432002043
:1077B000D8320020EC32002038D402007976020062
:1077C000B82B0020E832002070B5094D0146094869
:1077D0002E78FFF774FD044646B100232B70FFF7A7
:1077E00023FF18B1044AD621FFF7D2FC204670BD12
:1077F000E8320020D8320020E8D3020010B501465C
:107800000E48FFF74AFD0446A8B90D480D4A037813
:10781000D35C63B1043001F0C3FF60B90A49074883
:10782000FFF74DFD38B9BDE81040FFF711BF0C3030
:1078300001F07AFDF1E7204610BD00BFEC320020D8
:10784000B82B002044330020FD32002070B5EFF348
:10785000108672B60C4A946801239CB993600B4B56
:107860000B4DD3F8801029401160C3F88050D3F835
:10787000841051604FF0FF32C3F88420047006B9C1
:1078800062B670BD0370FAE70033002000E100E04B
:10789000FC06FFBD084B9A6810B55AB150B9EFF31A
:1078A000108172B6054A1C6814605C685460986068
:1078B00001B962B610BD00BF0033002000E100E056
:1078C000435882B03BB10023435043580193019B7E
:1078D000012002B070471846FBE70000F8B5204BC6
:1078E0004479204E43F824201F4A204B06EBC40461
:1078F0009B1A2279DB081B0432B143F002001C49B9
:10790000FFF776F80820F8BD02680C88C2F8084531
:1079100090F904508A7804795201002DD2B219DB13
:1079200014494F1987F8002301226D0904F01F0440
:1079300002FA04F441F82540427906EBC201012421
:1079400046F832000C7143F003000B49FFF750F882
:107950000020D8E7094904F00F040A55ECE700BFFE
:10796000143300200C33002044D102007CD10200EB
:1079700058D4020000E100E07AD4020014ED00E0E7
:10798000036801221A607047036801225A60704739
:1079900073B501F15005AD000068ADB24FF480340D
:1079A0008C400026C0F80843C0F84843465101F512
:1079B000A8714559019522F07F42019D40F8212090
:1079C000C0F844430BB1C0F8044302B070BD0000DE
:1079D0002DE9F74F0D4622F07F4402684FF48037BF
:1079E00005F150068F408046B60002EB8500C2F8D4
:1079F0004873B6B2C2F80873D2F8041599464FF02E
:107A0000000BD0F84035C0F8401542F806B05B1ABC
:107A10009259009223F07F43012B009A4FEA850A86
:107A20000CD1264B4FF4806043F001039847D8F8FF
:107A3000003043F806B09B590193019BD8F8001021
:107A4000D1F80465C1F84473A31B23F07F43012BD5
:107A50001CD11A4B05F5A875013443F0010341F818
:107A600025404FF480609847D8F80030D3F80435AB
:107A70009E4209D1D8F800300020C3F84473C3F8FF
:107A8000047303B0BDE8F08F0D20FAE78A44C9F112
:107A9000FF13CAF84045D1F80405221A013A22F032
:107AA0007F4203F57F439342EED3002AE2D10134B3
:107AB000CAF84045D1F804359842DAE790D402007C
:107AC00003680222C3F8442309B1C3F804237047B2
:107AD00000684FF48271FFF7F3BE4FF4803303FA6E
:107AE00001F10368C3F84813C3F808137047503115
:107AF0008900006889B2FFF7E3BE0368D3F8040584
:107B00007047000090F90430002B09DB5A0901216D
:107B100003F01F0301FA03F34032024941F8223017
:107B2000704700BF00E100E0024B034A1B68106889
:107B3000184700BF143300200C33002010B561B18A
:107B4000B2FBF3F403FB1424A4B244B9C0E900145B
:107B500084608281C381204610BD0E20FCE709208D
:107B6000FAE737B550E8013F9DB2C48925448489BE
:107B7000A54228BF2D1B0489A54202BFBFF32F8F4A
:107B8000002207E0C5EA030540E80154002CE9D1D2
:107B90004FF001028DF803200193019A0A609DF8CD
:107BA000031001F0FF0321B1006810FA82F003B066
:107BB00030BD1846FBE70A884B889A4209D150E845
:107BC000012FC2EA024240E80123002BF7D1012035
:107BD00070470020704737B550E8023F1FFAA3F501
:107BE000C488A54202BFBFF32F8F00220DE0C489D5
:107BF00025448489A54228BF2D1BC3EA054540E8DA
:107C00000254002CE8D14FF001028DF803200193BB
:107C1000019A0A609DF8031001F0FF0321B100688A
:107C200000EB124003B030BD1846FBE70A884B88D2
:107C30009A4209D150E8022FC2EA224240E80223C8
:107C4000002BF7D1012070470020704701F01F0280
:107C50004B090121914000EB830000F01EB801F0B8
:107C60001F0301229A404B0900EB8300D14300F02F
:107C70002CB84B0901F01F0150F82300C84000F058
:107C80000100704710B5034653E8000F0A4643E869
:107C9000002494F0000FF7D110BD10B5034653E84F
:107CA000002F42EA010043E8000494F0000FF6D1EF
:107CB00010BD10B5034653E8000F00EA010243E887
:107CC000002494F0000FF6D110BD10B5034653E820
:107CD000002F02EA010043E8000494F0000FF6D1FF
:107CE00010BD10B5034653E8002F02EB010043E836
:107CF000000494F0000FF6D110BD10B5034653E810
:107D0000002FA2EB010043E8000494F0000FF6D12D
:107D100010BD0121FFF7C1BF0021FFF7CABF10B599
:107D200090B1D0E9012301689B1ADBB20A60013BE4
:107D3000DBB2FF2B026802D10020107110BD116868
:107D40004C1C14600B70F2E70E20F7E737B50546C0
:107D500000240DF107008DF80740FFF777FD2A6832
:107D60006B68116899420ED9481E106011F8013CE9
:107D7000EC68298A01FB0344AB6811791B1ADBB25A
:107D8000994238BF13719DF80700FFF783FD204625
:107D900003B030BD37B5054600230DF107000C4692
:107DA0008DF80730FFF752FD2A681368591C1160DF
:107DB000E968641A298AB4FBF1F41C709DF8070085
:107DC000FFF768FD03B030BD826810B504462AB1E4
:107DD00043690168006998470023A36010BD0EB491
:107DE00003B5039921B104AB01AA019300F076F821
:107DF00002B05DF804EB03B070470A2938B50446B9
:107E00000D4602D10D21FFF7F8FFA3682268591C27
:107E1000A160D554D4E901329A4204D32046BDE88A
:107E20003840FFF7D1BF38BD2DE9F84F9846DDE95E
:107E30000A43154682460F460A464FF00109AA42F8
:107E40000FD2C14538BFC14613F0010B01D16CB947
:107E500000240126B8F1010F1BD908F1FF386E4349
:107E6000F8E709F10109B2FBF5F2E8E79B070ED547
:107E7000B8F1000F0CBF30262026A145E9D2013C05
:107E800031465046FFF7B9FF002CF6D1E0E7202637
:107E9000F3E7B7FBF6F39D42E1D9DFF83C80B7FB8F
:107EA000F6F3504618F8031006FB1377FFF7A5FF0B
:107EB0003346AB42B6FBF5F6F1D2BBF1000F02D070
:107EC0000CB1A14501D3BDE8F88F20215046013CFB
:107ED000FFF793FFF4E700BF96D402002DE9F74FB8
:107EE000054617468846002900F03E8118F8011B18
:107EF00049B92B7B002B00F03781284603B0BDE841
:107F0000F04FFFF761BF252940F0B780002698F8B1
:107F100000302D2B424608F1010823D0302B24D00D
:107F20002B2B25D000242A2B02F1010123D13B6801
:107F30001A1D1B683A601C440A4613782E2B26D162
:107F400001324FF0000A104610F8011BA1F1300C6D
:107F5000BCF1090F1DD80A2303FB0A13A3F1300A51
:107F60000246F0E746F00106D1E746F00206CEE70A
:107F700046F00406CBE711F8013CA3F130000928D4
:107F8000DBD80A2202FB0434303C0A46CBE74FF030
:107F9000000A12F8011B01F0FB0068289046F8D097
:107FA000782909D86F290CD8632962D022D82529CD
:107FB00063D0582900F0888098F80030002B95D1C4
:107FC00097E770390829F7D801A353F821F000BFCB
:107FD00043810200B97F0200B97F0200D98002000C
:107FE000B97F0200B7800200B97F0200B97F0200AA
:107FF000C9800200642901D06929DDD13A68D2F82C
:108000000090111D89EAE9723960A2EBE9724FF024
:10801000010B092A35DCD34538BFD3462CB1B9F161
:10802000000F01DB720700D5013CB30702D5BAF19E
:10803000000F03D0F00701D44CBB0024B9F1000FAE
:108040002DDAC9F100092D212846FFF7D6FE06F0EA
:108050000302022A04D1BAF1000F01D11CBB002493
:10806000CDE9004653460A2249462846FFF7DCFE82
:10807000A2E73B681A1D19783A602846FFF7BDFE53
:108080009AE70A230BF1010BB2FBF3F2C1E7A34518
:10809000D4D220212846013CFFF7AFFECCE7710780
:1080A000D5D52B21D0E7A345DAD230212846013C93
:1080B000FFF7A3FED2E73968CDE900460A1D3A6012
:1080C00053460A220968D0E739680A1D3A60CDE9AB
:1080D000004653461022F5E73B681A1D3A6016F039
:1080E0000106D3F8009024D1B9F1000F03D048461F
:1080F00004F097FC0646B4421DD809F1FF3919F87F
:10810000011F00293FF458AF2846FFF776FEF6E737
:1081100028460136FFF771FE19F806100029F7D13D
:10812000A642BFF449AF20212846013CFFF765FE77
:10813000F6E70026F0E720212846013CFFF75DFE28
:10814000D9E73B681A1D3A60302128461C68FFF7C2
:1081500054FE78212846FFF750FE00220823CDE97F
:1081600000322146102280E703B0BDE8F08F00BF47
:108170002DE9F84FB0F806A04579D2F800B09DF887
:1081800028900AFB05F5043D88460BEB0301A94244
:1081900003F1040488BFA5EB030BB4FBFAF6074612
:1081A0000AFB1644C2F800B04EB9AAEB04055D45BF
:1081B00028BF5D46BBF1000F04D1BDE8F88F3F68D2
:1081C000013EF1E7043408EB06003C442A46B9F1CD
:1081D000000F0DD02146ABEB050B04F0A4FBDA45F4
:1081E0002E443F6855464FF0000428BF5D46E1E746
:1081F00001462046EFE7FFF792BDF8B54679014604
:10820000721E0546002393422D6803D30024A64224
:1082100002D8F8BD0133F6E70F682846FFF7BAFD2C
:1082200001343946F3E72DE9F843068ACD1C0746A9
:10823000FFF78CFD043E35440446B5FBF6F5F0B17E
:108240004FF48073EDB28380C680013D07608146A4
:108250004FF00008A84512D23846FFF777FD0646D2
:1082600048B163790133637108F10108C9F800006E
:1082700007608146EEE72046FFF7BFFF3446204601
:10828000BDE8F88301210430FFF72BBD10B50121B3
:1082900004460430FFF731FDC0B220B92046BDE8E6
:1082A0001040FFF7AABF10BD1FB503920022009235
:1082B00003AAFFF75DFF05B05DF804FB1FB503924D
:1082C0000122009203AAFFF753FF05B05DF804FBFB
:1082D00033DF704741DF7047064B10B500241C7038
:1082E000054B1C60BFF35F8F0449054800F093F80D
:1082F000204610BD2133002024330020B0D40200DA
:108300001833002007B500230DF107008DF8073062
:10831000FFF79CFAF1EE103A23F09F03E1EE103ADA
:10832000BFF35F8F0A4B4022C3F884219DF80700FA
:10833000FFF7B0FA03F032FE20B103B05DF804EBB2
:10834000FFF7C8BF20BF40BF20BF03B05DF804FBEC
:1083500000E100E070B5254D044601212846FFF7F5
:1083600091FCBFF35F8F38B9042C0AD0204B1A78E8
:108370001AB1BFF35F8F286070BD1E4A14700122CE
:108380001A701D4C1B4E6368BBB9FEF7E7FBFEF786
:10839000D5F90028FBD1174B1B78023B012B15D8D0
:1083A000BFF34F8F1549164BCA6802F4E0621343BE
:1083B000CB60BFF34F8F00BFFDE71B683078984755
:1083C0000028D6D0204600F030F8DCE703F0E6FDC8
:1083D00018B1FFF77DFF20BFFDE74FF0804301227A
:1083E000C3F80025BFF34F8F20BFFDE724330020E3
:1083F00021330020203300201833002000ED00E05E
:108400000400FA05836800225A60C3E904229A60D6
:10841000DA601A6070470B684A684360934208BF8D
:108420000023016008BF43607047436843B102689E
:10843000916852680B449342436004BF0023436039
:10844000704770B5446806460D46206818B1B36899
:108450002946984718B923682B60256070BD2468A9
:10846000F3E74368186808B102681A607047436808
:10847000186870474368186800B97047884203D18C
:1084800002681A600120704703460068F4E70000A4
:1084900010B50D49A1F59472914201D800200FE06A
:1084A0008C1AE30F03EBE4035B1002EBC30452F8F6
:1084B0003330834205D802D204F10802ECE7606849
:1084C00010BD2146E8E700BFBCD9020008B5FFF7A0
:1084D000DFFF024B002808BF184608BD7FD8020006
:1084E00010B50446C0B2FFF789F9204610BD4FF021
:1084F0008053D3F83001421C04BF4FF0704393F80F
:10850000E00F831F58425841704700004FF07043FE
:1085100093F8E02F062A09D1D3F8E83FC3F30313F9
:10852000033B032B02D8024AD05C704700207047FF
:10853000C4D9020008B5FFF7DAFF40B14FF080530D
:108540008F4AD3F82433C3F30423C2F84035FFF72E
:10855000DDFF10B18B4B8C4A5A67FFF7C8FF48B15B
:108560004FF080534FF08042D3F84432C3F342338C
:10857000C2F83C35FFF7CAFF30B1844AD2F8FC306C
:1085800023F08073C2F8FC30FFF7B1FF40B14FF029
:1085900080430022C3F80C21C3F81021C3F838250A
:1085A000FFF7B4FF20B14FF080430322C3F8A025AA
:1085B000FFF7ACFF60B1764B0522C3F8102601220D
:1085C000C3F888260022C3F818263F22C3F81426D1
:1085D0004FF08053D3F83021511C09BF4FF0704346
:1085E000D3F8343193F8E02FD3F8E83F08BFC3F352
:1085F0000313062A4DD1033B032B03D8654AD35CF2
:10860000002B46D04FF08052634BD2F80414C3F8CD
:108610002015D2F80814C3F82415D2F80C14C3F8A6
:108620002815D2F81014C3F82C15D2F81414C3F876
:108630003015D2F81814C3F83415D2F81C14C3F846
:108640004015D2F82014C3F84415D2F82414C3F806
:108650004815D2F82814C3F84C15D2F82C14C3F8D6
:108660005015D2F83014C3F85415D2F83414C3F8A6
:108670006015D2F83814C3F86415D2F83C14C3F866
:108680006815D2F84014C3F86C15D2F84424C3F826
:108690007025FFF72CFF48B14FF080534FF0804218
:1086A000D3F8583203F04F03C2F8E43EFFF71FFF40
:1086B00048B14FF08043D3F80024D20744BF6FF095
:1086C0000102C3F800244FF08053D3F83021062A6A
:1086D0000ED1D3F83431033B032B02D82F4AD35C9D
:1086E00033B12F4AD2F83C3743F48063C2F83C37A9
:1086F000264AD2F8883043F47003C2F88830BFF3BA
:108700004F8FBFF36F8F4FF01023D3F80022002A52
:1087100003DBD3F80432002B2EDA224B0122C3F8FC
:108720000425D3F80024002AFBD04FF01022152195
:10873000C2F80012D3F80024002AFBD04FF0102317
:108740001522C3F80422174BD3F80024002AFBD0CB
:108750000022C3F80425D3F80024002AFBD0BFF37D
:108760004F8F0A49104BCA6802F4E0621343CB6092
:10877000BFF34F8F00BFFDE70C4B0D4A1A6008BDD9
:108780000030014000C007400DF0ADBA00ED00E040
:1087900000500040BCD9020000C00040C0D9020017
:1087A0000010004000E001400400FA05CC2B00203E
:1087B0000090D003054A4FF0A043105CD3F8043575
:1087C00023FA00F0C04300F001007047CCD902004A
:1087D000044B1A5C012393404FF0A042C2F80C35C1
:1087E000704700BFCCD90200044B1A5C01239340B0
:1087F0004FF0A042C2F80835704700BFCCD9020044
:1088000008B50020FFF7F0FF0120FFF7EDFF022081
:10881000FFF7EAFFBDE808400320FFF7E5BF08B512
:108820000020FFF7D5FF0120FFF7D2FF0220FFF75E
:10883000CFFFBDE808400320FFF7CABF074A4FF04B
:10884000A041105CD1F804350122824022EA0300E5
:108850001340C1F80805C1F80C357047CCD90200A7
:10886000054A4FF0A043105CD3F8103523FA00F00E
:10887000C04300F001007047C8D902000D2809D09C
:108880000E2809D00F2809D010280CBF03204FF064
:10889000FF3070470020704701207047022070476A
:1088A000014B185C704700BFC8D90200C20708B569
:1088B00001460CD54FF0A0430322C3F84427C3F868
:1088C0004827C3F84C27C3F85027FFF799FF8B07B9
:1088D0000AD54FF0A0430C22C3F83427C3F8382739
:1088E000C3F83C27C3F8402708BD000038B5074C43
:1088F000051E04F1080318BF1C4623682BB11A6833
:1089000022605B6828469847F7E738BD303300207F
:1089100020B9054B01225A70FFF7E8BF012802D1A8
:10892000014A9070F8E770472833002020B9034BC4
:1089300001225A70FFF7DABF704700BF28330020CA
:1089400038B50E4C2378B3B90D486360A36023613A
:10895000E36000F0E7F8054603F020FB08B900F0FB
:10896000EDF801232370074BD3F800340BB101233A
:10897000A370284638BD8525F5E700BF28330020C1
:10898000118902000000014037B50D4C00230DF1A4
:1089900007008DF80730FEF759FFE368013BE360FD
:1089A000E36833B9074BD3F8005415B900F0D8F891
:1089B000A5709DF80700FEF76DFF03B030BD00BF46
:1089C0002833002000000140012813B50CD00328F3
:1089D00020D038B9134B0122C3F88020BFF34F8F4A
:1089E000BFF36F8F02B010BD0F4C00230DF10700D5
:1089F0008DF80730FEF72AFF23780BB9FFF7A0FFA9
:108A0000E3689DF807000133E3600123A370FEF7DC
:108A100041FFE7E700F092F802B0BDE81040FFF731
:108A2000B3BF00BF00E100E0283300201FB503788A
:108A30008DF800304368019383688DF80830C3686F
:108A4000054A0393054B684653F8213052F821102C
:108A5000984705B05DF804FB3C330020403300200C
:108A60001FB503788DF800304368019383688DF853
:108A70000830C368054A0393054B684653F8213014
:108A800052F82110984705B05DF804FB3C330020F4
:108A900040330020F0B5194B90F800C091F81DE06C
:108AA00043F82C20164B16460A6943F82C20154B28
:108AB00003F80CE00C4607460FCC89B06D460FC595
:108AC00094E80F0085E80F00CDF810C0BEF1000F4C
:108AD00009D0002E0C4A694608BF3246381D00F006
:108AE0009DFD09B0F0BD002E084A694608BF324618
:108AF00007F10C0000F064FBF3E700BF40330020F7
:108B00003C330020443300202D8A0200618A020099
:108B100000F18040002382B0036003680193019B51
:108B200002B07047044A137923B901211060918083
:108B3000184670478520704748330020074B1A6855
:108B4000D20704D4C02283F8002301221A604FF018
:108B500080430122C3F81825704700BF00E100E000
:108B60004FF0804208B50223C2F808334FF48270F8
:108B7000FFF7CEFF0123D360D2F81834DB03FBD418
:108B800008BD00004FF0804110B5D1F8003163B14D
:108B90004FF48070FFF7BCFF0D4B58790122C1F8EC
:108BA000082310B95A711B6898474FF08042D2F8D9
:108BB000043163B14FF48270FFF7AAFF0223C2F8B9
:108BC0000833034BBDE810401B680120184710BD57
:108BD0004833002000F1804000F5C040002382B0FF
:108BE000036003680193019B02B07047800000F1AD
:108BF000A040D0F8002722F44032C0F80027D0F877
:108C0000003743EA0141C0F800177047054B4FF0A9
:108C1000FF32072843F8202084BFC01880F848207E
:108C2000704700BF5033002010B51A4C94F85830EC
:108C30006BBB4FF0FF3222FA03F1C90748BFE118BE
:108C400003F1010348BF81F83020202BF3D100212C
:108C5000C8B20131FFF7DAFF0C29F9D10422002153
:108C60000D4803F089FE0D4BC02283F806234022F5
:108C70001A604FF4BE70FFF7ADFF094B4FF0004292
:108C8000C3F80423012384F85830002010BD0820C5
:108C9000FCE700BF50330020A433002000E100E0D7
:108CA00000600040034B93F85800003818BF0120C3
:108CB000704700BF50330020F0B5394E331893F998
:108CC0003030002B69DA8D78C5F34005002D0BBFDD
:108CD000082300230C240824A34201D10420F0BD62
:108CE00056F82370013743D137185CB246F8232079
:108CF00087F8304015B9F21882F848008A7855078D
:108D000016D4D70736D5820002F1A042D2F8005718
:108D100025F00205C2F80057224FC50800F0070CE5
:108D2000012202FA0CF217F805C042EA0C027A5549
:108D30008A780D7812F0020225D09B0003F180435F
:108D400003F5C0430002D3F8102522F4473222F481
:108D50004072C3F810252D04D3F8102500F4F85004
:108D600005F4403528431043C3F810050020B6E74A
:108D70000133B1E74D7800F5E0724FF0A047AD0048
:108D800047F82250C8E7083C46FA84F494F85000AB
:108D900040EA851584F85050E8E708209FE700BFB7
:108DA00050330020A433002038B5204C251895F905
:108DB0003020072A18DD083A44FA82F494F850303B
:108DC0009B09032B0BD14FF0A043D3F81015C140E2
:108DD00001F001010231BDE83840FFF707BF012B68
:108DE0000CBF02210321F6E7D3B2072B1DD8930055
:108DF00003F1804303F5C043D3F8100540F00100B0
:108E0000C3F8100502F1400040B2800080B2FFF7C5
:108E1000E1FE51B195F9303054F823302BB10123E4
:108E200003FA02F2024BC3F8042338BD503300208A
:108E3000006000404FF0A043D3F8103523FA00F053
:108E400000F00100704700002DE9F74F00244E4D5F
:108E500001944FF48072012102F1804303F5C04375
:108E600090B21B68012B06D1D5F804330B4202D017
:108E7000FFF7B0FE0C430432B2F5907F4FEA410198
:108E8000EAD1414BD3F87C31012B0CD14FF4BE70A9
:108E9000FFF7A0FE4FF0A04344F00044D3F8202594
:108EA0000192C3F82025E3B2D3B1384F0025012643
:108EB000344210D0AB0003F1804303F5C043D3F834
:108EC0001005D3F8101557F8253023B1C1F301412F
:108ED000C0F3042098470135082D4FEA4606E7D134
:108EE000002C48DA294D4FF0A048294E4FF00009D8
:108EF000012716F9013B5A1C31D0C3F3C20202A963
:108F00000A44DCB212F8042C03F03F0A03F0070312
:108F100007FA03F31A4222D00AF5E073504658F8D4
:108F20002330C3F3014BBBF1020F0CBF032102211D
:108F3000FFF75CFE07FA0AF3C8F8203505EB0A03D1
:108F400093F9303055F823304BB1A109032904D0EF
:108F5000BBF1020F12D1012901D15046984709F106
:108F60000109B9F1040FC4D1D8F820350193C8F82C
:108F70002035002BB9D103B0BDE8F08FBBF1030F52
:108F8000EDD10229E8E700BF006000405033002027
:108F9000A0330020014B1B68184700BFAC330020F2
:108FA0000E4B984237B50C4602D0002003B030BDBE
:108FB00000230DF107008DF80730FEF747FC084B42
:108FC0001D7915B901221C601A719DF80700FEF782
:108FD00061FC002DE9D01120E8E700BF002000402F
:108FE000AC3300200023435082B043580193019BCF
:108FF00002B070470A4610B54FF48E71FFF7F2FFCA
:10900000136A9168C95C136A01331362C0F81C15B6
:1090100010BD024608B500684FF49271FFF7E2FFF9
:1090200010684FF48471FFF7DDFF136801221A60A6
:1090300008BD8B690A4610B54FF4847123B9FFF758
:10904000D1FFD0F8183510BDFFF7CCFF536AD168B7
:10905000D0F81805C854536A01335362F3E700008F
:109060001FB501238DF80030044BCDE90110D3E981
:1090700000126846904705B05DF804FBB433002049
:1090800030B54D4DD5F804339A0585B051D5D5F896
:109090002431002B4DD04FF492712846FFF7A2FFE8
:1090A0004FF40173C5F80833444B93F829200AB9EB
:1090B00001226A60404902228DF80020D1F8802404
:1090C000C1F8802403929A690292DA680192002220
:1090D000C3E906226846D3E9001290473648D0F823
:1090E0001C315BB1354A5169136A99424DD992F8E6
:1090F0002830002B49D11146FFF77CFF2E48D0F8CD
:109100004431002B56D04FF4A271FFF76BFF2B4B6D
:1091100093F829200AB1012202609A69002A49D0F5
:10912000586AD96800229A6105B0BDE83040FFF75F
:1091300097BFD5F804335B07D0D5D5F80831002B9D
:10914000CCD01E4C1C482146FFF773FF636AA2690E
:109150009A42C3D1E369E1684BB1A3612369E3603B
:109160000023606AE3616362FFF77AFFB6E794F871
:1091700029300BB901236B600F4B4FF40172C3F818
:1091800008230023606AA361EEE70B484FF48E7159
:10919000FFF728FF5369002BB0D0516902910023DB
:1091A00091688DF80030019153616846D2E900134F
:1091B0009847A3E705B030BD00200040B43300203D
:1091C0002DE9F843534D90F804802C2303FB0853FA
:1091D000064693F82A300C469146002B40F09680C4
:1091E0004D490068FFF7DCFE0746002840F09080FC
:1091F00022683068511C0BD04FF0A04101239340EE
:10920000C1F8083502F5E0734FF0030C41F823C0B4
:1092100061684B1C1FBF01F5E0734FF0A04C4FF08D
:10922000000E4CF823E0A369C0F8243594F814C06C
:10923000637DBCF1010F4CEA0303C0F86C35C0F844
:109240001415C0F80C251DD1A268531C1FBF02F5D0
:10925000E0734FF0A0414FF0000C41F823C0E368E9
:10926000591C0BD04FF0A04C01219940CCF80815A7
:1092700003F5E0714FF0030E4CF821E0C0F808351B
:10928000C0F810252C2202FB08F2AB18C3F804909A
:109290002369AB50B9F1000F20D04FF48E71247FB9
:1092A000FFF7A0FE4FF4A2713068FFF79BFE326813
:1092B0001A4BC2F80433130B42F307326101002A40
:1092C000C9B21EDB1648841884F800130121520924
:1092D00003F01F0301FA03F340F82230336804223D
:1092E000C3F800252C2303FB08530022C3E9062200
:1092F00083F829205A61012283F82A203846BDE8E4
:10930000F883084A03F00F03D154E7E70827F5E78D
:109310001127F3E7B433002081900200800002009F
:1093200000E100E014ED00E00279044B2C2101FB88
:1093300002335869003818BF01207047B433002049
:109340002DE9F84F064690F8048089469246FFF7CB
:10935000EBFF044600283CD1204F2C2508FB057B61
:109360004FF48E71CBF814A0CBF80890CBF8200006
:109370008BF828003068FFF735FE306801238360E2
:109380005946FFF737FEDBF804305D461BBB3068FB
:10939000DBF814402B6A9C4211D83368D3F81C21A7
:1093A000002AFBD00122DA6000202C2303FB08777F
:1093B00000237B61BDE8F88F95F828303BB9D0F8E1
:1093C0001C31002BF8D05946FFF714FEE2E70F20BE
:1093D000EBE71120EEE72046ECE700BFB4330020B6
:1093E0002DE9F0473A4D07792C2303FB0753064636
:1093F0005C6824B103684FF40170C3F808032C23A0
:1094000003FB0753986950B1D869002841D024B1B3
:1094100033684FF40172C3F80423112436E09A61D3
:10942000D9605862D8612C2303FB075393F8293085
:109430001BB910B93046FFF7ECFD4FF02C0808FBC4
:10944000075A3068DAF80430002B37D14FF4A27194
:10945000D046FFF7C7FD3068D0F82491D0F8083126
:10946000D0F84441CBB914B9B9F1000FF3D02C2393
:1094700003FB07550023AB61B9F1000F24D12CBBCE
:1094800095F8291033680122B1B11A602046BDE871
:10949000F0871961DA610120C5E7B9F1000FE6D163
:1094A000002CE4D14146FFF7C4FDDAF82430DAF8A5
:1094B00018209A42CFD8DAE75A60E7E74FF40173F1
:1094C000C0F804330024E1E70324DFE70F24DDE7DD
:1094D000B43300200023435082B043580193019BD2
:1094E00002B070471FB501238DF80030044BCDE961
:1094F0000110D3E900126846904705B05DF804FBFF
:10950000E03300207FB5434AD2F82461002E60D0BA
:1095100010464FF49271FFF7DDFF02238DF8003003
:10952000D2F88034C2F880340393D2F83C350293E9
:10953000394BDA6801920022C3E906226846D3E972
:10954000001290473348D0F8443173B14FF4A27100
:10955000FFF7C0FF304B9A693AB10022C3E90622F7
:10956000D968D0F83C05FFF7BDFF2A48D0F8203174
:10957000ABB14FF49071FFF7ADFF0123C360264BF1
:109580005A6962B1D0F84C150291002299688DF8A1
:10959000002001915A616846D3E9001290471D48A6
:1095A000D0F858319BB14FF4AC71FFF793FF1A4BD1
:1095B0005A6962B1D0F84C150291002299688DF871
:1095C000002001915A616846D3E90012904704B027
:1095D00070BDD2F81031002BB4D04FF48871104612
:1095E000FFF778FF0C4BD2F83C0599698842A9D166
:1095F000DC69D96864B1D2F8005225F02005C2F8C0
:1096000000521A699C61DA60DE61FFF76BFF99E72F
:109610009C61FAE700200040E03300202DE9F84388
:109620005A4E90F80480242303FB0863044693F801
:1096300020300D469146002B40F0A380544900682D
:10964000FFF7AEFC0746002840F09D802A6820689E
:10965000511C0BD04FF0A04101239340C1F80835B5
:1096600002F5E0734FF0030C41F823C069684B1C0E
:109670001FBF01F5E0734FF0A04C4FF0000E4CF807
:1096800023E0AB69C0F8243595F814C06B7DBCF1BC
:10969000010F4CEA0303C0F86C35C0F80C25C0F884
:1096A00014151DD1AA68531C1FBF02F5E0734FF0BB
:1096B000A0414FF0000C41F823C0EB68591C0BD0BF
:1096C0004FF0A04C01219940CCF8081503F5E0714A
:1096D0004FF0030E4CF821E0C0F80835C0F8102513
:1096E000242202FB08F2B318C3F804902B69B3508C
:1096F000B9F1000F2FD04FF488712A7FFFF7EAFEEF
:1097000020684FF49071FFF7E5FE20684FF49271E6
:10971000FFF7E0FE20684FF4A271FFF7DBFE4FF485
:10972000AC712068FFF7D6FE23681A49C3F804130A
:10973000190B43F307335201002BD2B21CDB16483E
:10974000C51885F8002301225B0901F01F0102FA08
:1097500001F140F8231023680822C3F800252423D0
:1097600003FB08660023C6E906337361012386F80C
:1097700020303846BDE8F883084B01F00F015A54F9
:10978000E9E70827F5E71127F3E700BFE0330020FA
:10979000059502001003420000E100E014ED00E036
:1097A0000279044B242101FB02335869003818BFA9
:1097B00001207047E033002001F06043B3F1005F07
:1097C0002DE9F0470646884692463BD190F8049032
:1097D000FFF7E6FF0446002836D11D4F30682425E8
:1097E00005FB09754FF49071C5F814A0C5F8088001
:1097F000FFF770FE4FF4AC713068FFF76BFE336813
:109800006A69A968C3F84415C3F8482501229A601B
:109810006A68DAB9D3F82021D3F858011AB90028B8
:10982000F8D00F2007E00028FBD10122DA60D3F83E
:109830005821002AFBD0242303FB097700237B61F6
:10984000BDE8F0871020FBE71120F9E72046F7E795
:10985000E0330020F8B501F06043B3F1005F044647
:109860000F465ED10379304D242101FB0351496835
:1098700021B100684FF40476C0F80863242000FB8F
:1098800003539E6956B1D869002839D021B12368A5
:109890004FF40472C3F80423112030E09A61DF60B2
:1098A000DE6120684FF48871FFF714FE20684FF4E2
:1098B000A271FFF70FFE2368C3F83475C3F838258B
:1098C00016BB01221A602479242202FB045252683A
:1098D0000ABBD3F81011D3F84421D3F82401114363
:1098E00002D10028F5D00A46242303FB04550023A7
:1098F000984218BF03209A42AB6118BF0F20F8BDF1
:109900001F61DA610126CCE7D3F8002242F0200281
:10991000C3F80022D7E74FF40472C3F804230020F1
:10992000EDE71020EBE700BFE03300200220FEF758
:1099300085BF00002DE9F04780460D46FEF79EFFEB
:109940000328044610D8012D10D0022D30D05DB967
:109950001A48FDF794FD1A4B04EB440213449D781A
:10996000184B1B5DAB4219D0BDE8F087144E00EBDD
:109970004003F218F55C5378470053B1DFF84C9080
:109980000E484A464FF48041FDF761FD08B989F859
:10999000008027443E440B4BB2781A55002DE3D08B
:1099A000094B1B68002BDFD02846BDE8F04718475D
:1099B00000EB4004024804446578EFE728340020B7
:1099C00068340020813400207C34002004340020DE
:1099D00000780221FFF7AEBF08B5094B1B7853B1E1
:1099E0000020FEF701FF0120FEF7FEFEBDE8084063
:1099F0000320FEF7F9BEBDE80840FEF701BF00BF37
:109A000005340020F8B57A4C237805461BB10023B5
:109A10002370FFF7E1FF172D00F28780DFE805F0E4
:109A20000C1717425364757F878C878C949999998A
:109A30009999C3C8D0D8E3E3FFF7CEFF6D48FDF78F
:109A40001EFD6D4B002204461A702046F8BD002012
:109A5000FEF7B0FEF0B10020FEF7C6FE022D0CBFEF
:109A60004FF4E1644FF47A64634B1D7000254FF4AA
:109A700000464FF47A7029464FF4FA620023E4FB63
:109A8000060102F023FE2A460146BDE8F840594887
:109A9000FDF7DDBCFEF79CFE022D0CBFC8244FF481
:109AA000C874E1E70020FEF785FE40B10020FEF714
:109AB0009BFE4FF44874504B03221A70D6E7FEF712
:109AC00087FEC824F7E70020FEF774FE38B10020B7
:109AD000FEF78AFE4FF47A64474B0422EDE7FEF767
:109AE00077FE4FF4C874F7E70020FEF763FE48B135
:109AF0000020FEF779FE404B05221A7040F6CD415A
:109B00000022C2E7FEF764FEF5E70020FEF796FEAE
:109B1000394B06221A70002240F26661B5E7002038
:109B2000FEF756FE344B07221A7000248DE7012001
:109B30002070FEF783FEEEE701202070FEF77EFE28
:109B400000224FF40051A0E7FEF769FE2A4B0C22D9
:109B5000EAE72A482A4EFDF792FCD5F111050446A2
:109B60001CD0D8B9012D13D0C820454321464FF44D
:109B700000474FF47A704FF4FA620023C5FB0701E7
:109B800002F0A4FD224601461C48FDF760FC044695
:109B90000220FEF71DFE0123337056E70220FEF778
:109BA00023FE0023F8E7FFF717FF134B1222BBE752
:109BB000FFF712FF0020FEF70BFE0F4B1322B3E757
:109BC000FFF70AFF0120FEF703FE0B4B1422ABE761
:109BD000FFF702FF0020FEF7FBFD0120FEF7F8FD76
:109BE000054B1522A0E7FEF71AFE034B1D709CE7FC
:109BF00078340020483400208034002008340020CD
:109C000005340020044B1B68DB0703D5034B187891
:109C1000FFF7F8BE704700BF743400208034002086
:109C200010B5002914BF03240024FEF739FE80007C
:109C300000F1A040D0F8002722F44032C0F80027FD
:109C4000D0F8003743EA0443C0F80037002010BDC5
:109C5000032801D8FEF704BE00207047044B1B68A0
:109C600013F0010301D0FFF7CDBE1846704700BFC7
:109C70007434002038B51C4B18601C4B10F00204E3
:109C8000054619601AD01A4B1A480E221A700F2274
:109C9000DA7010229A7111225A72042140F2333282
:109CA000FDF7DCF9044648B9FDF730FA044628B957
:109CB0000146114A1148FDF7BFFB0446EB0711D5D9
:109CC0000120FEF7F3FD6CB921460D4A0D48FDF762
:109CD000B3FB044630B9BDE838400B4A0B480121BC
:109CE000FDF7AABB204638BD743400207C34002028
:109CF00068340020F0D90200D199020014DA020081
:109D0000059C020018DA02002D99020010DA020008
:109D1000032811D8012A0AD101290FD100F10E021E
:109D2000D2B20D4B00EB40001A54002070470129BD
:109D3000F7D0022904D049B1072070470022F8E784
:109D4000054B00EB400018444270EEE7024B00EB7D
:109D5000400018448270E8E768340020032802D8E5
:109D60000121FFF75DBF0620704708B501220221DF
:109D70000020FFF7CDFF08B1072810D107220221EC
:109D80000120FFF7C5FF08B1072808D100210A22EA
:109D90000846FFF7BDFF10B1072808BF002008BD27
:109DA0000388102B10B502D0112B1ED010BD1A4CF9
:109DB0002168B1B901220846FFF7AAFF08B10728B8
:109DC00024D1072202210120FFF7A2FF08B10728B2
:109DD0001CD1042202210020FFF79AFF08B10728B6
:109DE00014D1236801332360E0E70B4A1368013B79
:109DF0001360002BDAD1FFF7B8FF0028D6D0074B4D
:109E00001B68002BD2D0BDE810401847034B1B68DD
:109E1000002BE6D09847E4E78C34002088340020FB
:109E200008B50020FFF79AFF08B1062806D10120E7
:109E3000FFF794FF10B1062808BF002008BD0000FE
:109E40000D4B10B518600C4629B10120FFF700FF3B
:109E500040B102232370094B1B6853B9BDE8104081
:109E6000FFF783BFFFF7F4FE08B10B23F2E7207082
:109E7000F1E7002010BD00BF883400208C340020A2
:109E800076DF70477ADF70477CDF70477FDF70478F
:109E90008FDF7047B1DF704733DF7047014BD3F876
:109EA0000405704700100140014AC121FDF770B957
:109EB0001CDA0200024A40F27911FDF769B900BFCD
:109EC0001CDA020070B5124B124C4A88E41A124B8D
:109ED0001B88E4089A4205464FEA04440FD10A88D9
:109EE00040F677239A420AD18B880C4A0C49033BEF
:109EF0009BB2138044F003001A46FCF786FD2B88C2
:109F00006A88084944F00400BDE87040FCF77DBD54
:109F100044D102006CD10200D62B0020D42B0020AB
:109F20006CDA020088DA020008B50020FFF796FE1E
:109F300020B10C4A40F29B11FDF72AF9FFF770FFA0
:109F400020B1084A40F29F11FDF722F9FFF7A4FF64
:109F500030B1BDE80840034A40F2A311FDF718B93B
:109F600008BD00BF1CDA0200072808B516D00A2871
:109F700010D0042822D1124B13211888FFF780FF3C
:109F800030F008031AD00F4A40F24D21BDE80840D6
:109F9000FDF7FEB8BDE80840FFF7C6BF084B1A88BA
:109FA0004FF6FF739A4209D1074801F086F830F066
:109FB000080303D0034A40F25721E7E708BD00BF7A
:109FC000D62B00201CDA0200883500200388212BC4
:109FD00013B504464AD007D8112B38D0132B60D0C4
:109FE000102B11D002B010BD522B67D0562B72D05F
:109FF0003B2BF7D180881321FFF742FF0028F1D0D7
:10A000003A4A4FF4FB711DE0394B3A483A49C01ABD
:10A01000C008000440F00300FCF7EAFC0720FFF74B
:10A020001DFE20B1314A4FF4E771FDF7B1F8334B13
:10A03000A1883348198001F075FD0028D2D02B4A41
:10A0400040F2D11102B0BDE81040FDF7A1B8284B95
:10A0500028482C49C01AC008000440F00300FCF74F
:10A06000C7FC264B4FF6FF721A80BBE7204B2148F6
:10A070002549C01AC008000440F00400FCF7B8FCF1
:10A080000023A0888DF8043001A98DF80530FFF772
:10A09000FFFE0028A6D0154A40F2E311FDF778F83C
:10A0A000A0E71648002300881A468521FFF7EEFE38
:10A0B000002897D00D4A40F2E911C3E70F4800236A
:10A0C00000881A461946FFF7E5FE00288AD0074A9D
:10A0D00040F2EF11B6E780881321FFF7D1FE002888
:10A0E00080D0024A40F2FD11ACE700BF1CDA02004A
:10A0F00044D102006CD10200C1DA0200D62B00204C
:10A10000D4390020CBDA0200D8DA020010B5204B97
:10A11000204A9B1ADB088CB01B04032835D8DFE8E3
:10A1200000F002262E3243F0030420461A49FCF7C1
:10A130005FFC2C22002101A802F01EFC44F25062B8
:10A1400040210123CDE9051214488DF8083001A9FA
:10A150008DF8043000F0CFFF0021114801F0E8F93C
:10A16000104902462046FCF747FC0CB010BD0E49D2
:10A1700043F003000CB0BDE81040FCF739BC0B49BC
:10A1800043F00100F6E70A49FAE70A49F8E700BF99
:10A190006CD1020044D10200ECDA020088350020C4
:10A1A000E9A202001ADB020031DB020054DB0200EC
:10A1B0008DDB0200BADB020008B5037863B9074BF8
:10A1C0003B211888FFF75CFE30B1BDE80840044A27
:10A1D0004FF4B771FCF7DCBF08BD00BFD62B0020E1
:10A1E0001CDA020008B560B103280ED10220FFF787
:10A1F00035FD50B1BDE80840044A40F2B511FCF706
:10A20000C7BFBDE80840FFF78FBE08BD1CDA0200DB
:10A21000F0B50378012B85B050D0022B45D0002B30
:10A2200041D1284C284D20782844FDF7CDFA2378D9
:10A230000133DBB21D44237015F8012C0A2A05D026
:10A240000D2A03D0214A12889A422CD8012B28D9F2
:10A250001F4B20482049214D1B4E214FC01AC008DA
:10A26000000440F004000190FCF7C2FB227816497C
:10A270000198FCF7F1FB2378ADF80E300DF10E02DA
:10A280002B883146384601F0C9FD082809D013282B
:10A29000F1D0052805D020B1124A40F28621FCF702
:10A2A00077FF0023237005B0F0BD0E4A4FF42471F0
:10A2B000406805B0BDE8F040FCF76ABF094A4FF4BA
:10A2C0002571F5E78435002090340020D42B002040
:10A2D00044D102006CD10200E1DB0200D62B002049
:10A2E000D82B00201CDA020013B513210D4C01906D
:10A2F000FFF7C6FD0C4B019AE41AE4082404034658
:10A3000038B10A4944F0020002B0BDE81040FCF741
:10A310007CBB074944F0040002B0BDE81040FCF7E4
:10A320006BBB00BF6CD1020044D1020001DC020013
:10A3300042DC02002DE9F74306780546002E37D1AE
:10A340001D4B1E4C1E49DFF87C80DFF87C90E41A20
:10A35000E408240444F004000190FCF749FBAA8AB5
:10A3600029690198FCF778FB44F00104AA8A964217
:10A370000AD32B69134413F8013C0D2B18D10A2082
:10A38000FDF73CFA1128F9E72B69985DFDF736FADD
:10A39000074658B11128F7D0024641462046FCF73F
:10A3A0002BFB4A46DF213846FCF7F2FE0136DDE79B
:10A3B00003B0BDE8F08300BF44D102006CD10200BD
:10A3C00064DC020096DC02001CDA020008B50B49CE
:10A3D0000B4801F0FBF920B10A4A40F23521FCF7A5
:10A3E000D7FE0748F72101F005FA30B1BDE8084073
:10A3F000044A4FF40E71FCF7CBBE08BDC59E0200A7
:10A40000BC3900201CDA020000B5924D0FCDB1B06E
:10A4100005AC0FC495E803008F4B904A01934FF4AD
:10A42000807384E80300CDE9032302938C4A072359
:10A4300001A905A8FDF770F920B18A4A40F2B921B7
:10A44000FCF7A6FE88484FF48041FCF71DF920B1C7
:10A45000844A40F2F721FCF79BFEFCF755F8FCF725
:10A46000B9FF18B17F4A9721FCF792FE7F4903207C
:10A47000FFF700FC20B17B4A40F2E321FCF788FEA5
:10A4800005A90020FFF7DCFC20B1764A40F2E62166
:10A49000FCF77EFEFDF720FF20B1724A40F2033147
:10A4A000FCF776FE01F03CFD20B16E4A4FF40471DA
:10A4B000FCF76EFE002305A90120059301F0C8FDFD
:10A4C00020B1684A40F21621FCF762FE05A801F0AF
:10A4D00091FE20B1634A40F21A21FCF759FE112384
:10A4E00063488DF8043002F09CFA614982B201A8F9
:10A4F000FFF7CAFC18B15B4AAA21FCF749FE082203
:10A50000002105A802F038FA1023ADF814303C23DE
:10A51000ADF816300023ADF8183005A84FF4C87315
:10A52000ADF81A30FFF7AEFC18B14E4AB421FCF773
:10A530002FFEFFF74BFF4F4B4F48019301A901F04E
:10A54000DFFA20B1474A4FF4A471FCF721FE002145
:10A550000422684602F010FA484B494800936946C5
:10A5600001F0E2FB20B13F4A4FF4A871FCF710FE66
:10A57000444B059305A801F099FF20B1394A40F2F8
:10A580005711FCF705FEAC22002105A802F0F4F9F2
:10A5900002238DF814304FF4A0633B4AADF8163017
:10A5A0000123ADF8603019928DF89030402244F2CA
:10A5B0005063CDE927233548354B2E9305A900F08C
:10A5C000BBFB20B1274A4FF43571FCF7E1FD2F4862
:10A5D000012100F0AEFB1C22002105A802F0CCF9FD
:10A5E00000234FF4A032CDE90532ADF822304FF40C
:10A5F000F0228DF82430274B07920A930322264B32
:10A600008DF8202005A80B9300F082FE20B1154A9A
:10A610004FF4C871FCF7BCFD204802F053F9204B01
:10A6200020482149C01AC008000440F00300FCF78C
:10A63000DFF91648032100F0FEFB20B1094A40F281
:10A640001931FCF7A5FDFCF779F80028FBD1FDF7DF
:10A6500059FEF8E708DD0200E0390020E03A00206A
:10A6600011A202001CDA02009D9E0200699F0200F6
:10A67000C1DC0200A99E0200D439002035A30200EB
:10A68000D82B00200DA10200D02B002088350020FF
:10A69000E5A10200B9A10200B59E0200CADC0200D9
:10A6A00044D102006CD10200DCDC02000369C26804
:10A6B00093429CBF80681B18013B981A70472DE994
:10A6C000F843D0E902940546A9EB04084068904598
:10A6D00020440F46144404D902F025F9EC60BDE88B
:10A6E000F8834246A4EB090402F01DF9686822468B
:10A6F00007EB0801F0E72DE9F843C56806468946EF
:10A7000017464FF000083469B3687068A54228BF47
:10A71000E418013C621B5C1BBC4228BF3C469442CF
:10A7200028BF144649462844224602F0FCF8B36884
:10A730002544AB4208BF00253F1BA044A144F5605F
:10A74000E1D14046BDE8F88310B5114C114AA26131
:10A750000223C4E90433104BE361A2644FF4007395
:10A760000E4A0F492362E26400231022E01DA36217
:10A770006362E362A3656365E365226502F02FF916
:10A780000849204602F02BF92023A37110BD00BF19
:10A79000E03B002020DD0200683C0020583C002007
:10A7A00029DD02002DDD020070B5164B182400FBD8
:10A7B00004451D4404FB00331646DC6A012C0ED010
:10A7C000022C18D0E4B92846FFF770FF864204D85F
:10A7D00032462846FFF773FF3446204670BD2846B0
:10A7E000FFF764FF8642344628BF044622462846C7
:10A7F000FFF765FFF1E72846BDE87040FFF77BBF34
:10A800000024EAE7E03B0020FFF79EBF6DDF7047C2
:10A8100079DF70477DDF704764DF70472DE9F04FC7
:10A8200085B000250E9CBDF83CB0B4F800A00191A5
:10A83000074690461E46A9463A884A450DDC45B172
:10A840002388013BA3EB0A039BB2FF2B3AD806F8FF
:10A850000A30002005B0BDE8F08F7A6852F8290070
:10A86000039000220DF10B0103A8FFF7D5FF00288C
:10A87000F0D19DF80B20424521D12288002D14BF34
:10A880000020022002EB0801014459451ADC3DB9C1
:10A89000013292B2019B2280B3542288013222807D
:10A8A00022880DF10B01324403A8FFF7B5FF002801
:10A8B000D0D121889DF80B200A442280012509F17E
:10A8C0000109B9E70C20C5E72DE9F341089FBDF860
:10A8D00024801546CDE90078022204461E46FFF783
:10A8E0009DFF50B93346102229462046CDE908780D
:10A8F00002B0BDE8F041FFF791BF02B0BDE8F081C2
:10A900002DE9F04F00231788138090F82D3085B083
:10A9100006460D46144653B3082F01D80C2027E1F4
:10A9200002A8FFF773FF002840F022812388082245
:10A93000EA54238801339BB21B222380EA542088E7
:10A94000013080B2208006220DF10901284401F077
:10A95000EAFF23889DF8082006339BB212F0FE021E
:10A9600018BF01222380EA54238801332380B3785F
:10A97000FBB123880433BB42D0D802A8FFF748FFBD
:10A98000002840F0F58023880322EA54238801330D
:10A990009BB219222380EA542388BDF80820013392
:10A9A0009BB2E9182380EA54120A4A7023880233C2
:10A9B0002380F2789AB12388D91CB942AED80221FB
:10A9C000E954238801339BB201212380E954238871
:10A9D0000B449BB22380EA5423880B442380726883
:10A9E000AAB12388D91CB94298D8022192F9002033
:10A9F000E954238801339BB20A212380E954238838
:10AA000001339BB22380EA542388013323803389A6
:10AA1000002B40F0A180338A5BB1CDE900472B4683
:10AA20000722032106F11000FFF74EFF002840F037
:10AA30009F80338B5BB1CDE900472B461522142153
:10AA400006F11800FFF740FF002840F09180326ABD
:10AA5000002A40F09080D6F82480B8F1000F30D062
:10AA6000B8F804302188981C8A1C0244BA423FF688
:10AA700055AFFE283FF652AF03336B5423880133A2
:10AA80009BB2FF222380EA54238801339BB22380A8
:10AA9000B8F80020EA54E918120A4A7020880230F7
:10AAA00080B22080B8F804205AB1D8F808100029E4
:10AAB0006BD0284401F037FF2388B8F804201344F2
:10AAC000238096F82C30002B40F0988030780028B6
:10AAD0004ED03388012B58D0228802F1020CBC459D
:10AAE0003FF61CAF012805D17378023313449F420F
:10AAF000FFF414AF023FBF1ABFB202A905EB0C006E
:10AB0000ADF80870FFF786FE90BB3178BDF80830CD
:10AB1000022900F0B98072789A4202D39F4280F0F5
:10AB2000B180012940F0B280974293B2C0F0AE806C
:10AB3000ADF808300821BDF80830FE2B3FF6EEAE28
:10AB400022880133AB542288013292B22280A95468
:10AB50002288134423800BE0CDE900472B460622D0
:10AB6000022106F10800FFF7AFFE00283FF453AFC3
:10AB700005B0BDE8F08FB4F800C00CF10603BB428D
:10AB80003FF6CCAE1188052901D80720F0E76FF415
:10AB9000486E01EB0E039BB24FF27D3E7345F4D934
:10ABA0005388052BF1D96FF44860181880B27045AE
:10ABB000EBD94FF6FF70814201D09942E5D80523C9
:10ABC00005F80C30238801339BB212212380E9540D
:10ABD000238801339BB223801188E954E818090ABD
:10ABE0004170238802339BB223805288EA54E918CB
:10ABF000120A4A702388023323802CE7B36A002BA1
:10AC0000C3D04FF000084FF00C0A4FF0160BB16A9A
:10AC10005FFA88F20AFB02F201EB0209B9F804308C
:10AC2000981CFE283FF67AAE208803332B542388E5
:10AC300001339BB2238005F803B0238801339BB214
:10AC400023808A5AEA54E918120A4A70208802308E
:10AC500080B22080B9F804205AB1D9F80810002930
:10AC600093D0284401F05FFE2388B9F804201344F0
:10AC7000238096F82C2008F101085FFA88F39A42A5
:10AC8000C5D823E7092156E79F42FBD2ADF80870EB
:10AC900050E730B5C8B1F2B10024651C8D4206DA28
:10ACA0001588A54212D805196D789D420ED1A14292
:10ACB00011D9005D48B1013880B230B10234A3B27D
:10ACC00010FA84F4A14206DB138030BD055D013526
:10ACD0002C44A4B2E1E70020F7E713B513460022A5
:10ACE000ADF806200DF106020446FFF7D2FF10B1C1
:10ACF000BDF80630E01802B010BD72DF704773DF98
:10AD0000704774DF704738B5012204460D46B0F82D
:10AD10001414D0F81004FFF7E0FF00B1057004F13F
:10AD20003C0204F5826104F15400BDE83840FFF7AD
:10AD3000E4BF80F830107047F8B504460F4600298C
:10AD400075D0002873D091F87A301BB191F8983003
:10AD5000002B6ED1D7F8A030042B6AD0D7F89C30E6
:10AD6000042B66D04FF0000C84F802C007F178067F
:10AD70000FCE251D0FC50FCE0FC596E8070085E83D
:10AD8000070084F830C0D7F8A4306363D7F8A83040
:10AD9000A3634FF6FF7504F58263C4F82034A4F86A
:10ADA00024540722614604F2264001F0E5FD237891
:10ADB0000BB984F8545094F82430002B14BFEE23C0
:10ADC0001F2304F15501C4F81014A4F8143404F23C
:10ADD00014423846FFF794FD40BB94F82430002B12
:10ADE00014BFEE231F2304F23121C4F81814A4F871
:10ADF0001C3404F21C4207F13C00FFF781FDA8B9A6
:10AE0000A369A4F848304FF480730125A4F85030AA
:10AE100063692064014684F83C50636404F13C0299
:10AE200004F15400FFF769FF00B92570F8BD0E204A
:10AE3000FCE70720FAE7F8B5077804460D46002F2F
:10AE400000F0048100F2264681700722002130467E
:10AE500001F092FDE38813B1A378012B04D0E379CC
:10AE60004BB1A378022B06D1636BABB1012284F8FE
:10AE70002D240820984704F2274304F22D4113F8AB
:10AE8000012B12B99942FAD117466B1E032B51D8E8
:10AE9000DFE803F0050B0F1284F82D34EBE7A379FC
:10AEA0001BB194F8243003B95FB9E3790BB1002FDB
:10AEB00042D1237A002B41D1637A002B0CBF0025AD
:10AEC0000425636BA570002B3AD0033D012D37D8C4
:10AED0006279AAB394F82E2492BB84F8302401221C
:10AEE00084F82F240720984704F13C0518220021FC
:10AEF000284601F041FDE26A531E0121022B28BFC2
:10AF00000A4684F8512094F8242084F83C1032B189
:10AF1000A36A581E022828BF0B4684F85230A17835
:10AF2000002384F8503004291BD8DFE801F0770DA6
:10AF3000223559000025C4E70225C2E70325C0E7F2
:10AF4000002384F82F34CFE7C4E91063C4F8203419
:10AF50000223012284F83C30802384F83120A4F8B5
:10AF60004830A378002B5CD1636B002B6AD10020A2
:10AF700067E00223002A84F8313014BF072303233B
:10AF800084F83C302369A4F848300023C4F8203406
:10AF9000E36826646364E4E763696364A369A4F80F
:10AFA000483012B1062384F83C306379B3B194F889
:10AFB0002E349BB994F8303483B1022384F8503096
:10AFC00004212046FFF79FFE0028CAD1052384F8FC
:10AFD000313004F58263C4F82034C2E70323F6E776
:10AFE000E3696364236AA4F8483012B1062384F845
:10AFF0003C30637983B194F82E346BB994F83034D3
:10B0000053B1022384F8503004212046FFF77BFE21
:10B010000028A6D10623DAE70423D8E784F83130E4
:10B020009FE7D4F820142A4604F15400FFF765FE88
:10B0300038B994F8301094F85400FFF760FE0028F7
:10B0400092D0F8BD94F83100984790E70820F8E7CF
:10B050000388112B10B50C460AD0262B1FD0102BBD
:10B0600005D1C37B012B02D18388A1F8243410BD04
:10B070000022838881F82E24B1F824249A42F6D144
:10B080000B79002BF3D101212046FFF7D4FE0028D5
:10B09000EDD0A36B002BEAD0BDE810401847037A2F
:10B0A000013B012BE3D8897805230131B1FBF3F390
:10B0B00003EB8303C91AC9B2E6E738B5044690F832
:10B0C0005400FFF71EFE012384F82E34002384F879
:10B0D000303484F8503006212046FFF714FE054630
:10B0E00038B9A1782046FFF7A6FE10B1A36B03B1D3
:10B0F0009847284638BD30B50D46041D0FCD0FC406
:10B100000FCD0FC495E8070084E8070030BD75DF58
:10B11000704776DF70477ADF70477BDF704700004B
:10B12000034B1A8882420CBF18460020704700BFAC
:10B13000843E0020024B9B6903B11847704700BF53
:10B14000683E002073B585B22846FFF7E9FF044644
:10B1500038B3174E027A337B9A420CD200F10A01BF
:10B160002846FFF7D4FFF0B111281AD002B0BDE88D
:10B170007040FFF7DFBF00230372337C43B13B21F4
:10B180002846FFF7C6FF30F0080301D0FFF7D2FFD3
:10B19000736933B100228DF80420ADF8065001A880
:10B1A000984702B070BD237A01332372F9E700BFDC
:10B1B000683E002037B50B46497A0F4A79B9D2E983
:10B1C00001141D7A0246002D18BF21465868FCF76D
:10B1D0003EF978B103B0BDE83040FFF7ABBF0021C6
:10B1E0001972536933B10122ADF806008DF80420BD
:10B1F00001A8984703B030BD683E00204B88028804
:10B200009A4212D842889A420FD380888B8840F2A3
:10B21000F311884294BF021A421A9A4205D8084490
:10B22000984234BF00200120704700207047000082
:10B230000388122B70B5014659D004D8102B1ED0AC
:10B24000112B44D070BD502BFCD12F4BC288DB8911
:10B250009A42F7D1038A022BF4D186883046FFF751
:10B260005FFF05460028EDD001F1120000F0A8F9BB
:10B2700038BB6868FCF703F90028E3D009E0C37B1A
:10B28000012BDFD14FF6FF70FFF74AFF054620B9CB
:10B290000420BDE87040FFF74DBF1C4A8E88068031
:10B2A000002303721368C0F80A305368C0F80E30E8
:10B2B00010310A30FFF7A2FF134B6872DB89002BB5
:10B2C000C0D129463046BDE87040FFF773BF808883
:10B2D000FFF726FF04460028B4D04068FCF7CFF8FB
:10B2E00008B1FFF727FF4FF6FF732380AAE7868890
:10B2F0003046FFF715FF05460028A3D008310A3075
:10B30000FFF77CFF6872DCE7683E0020983E002073
:10B31000F8B5064648B305460FCD154F3C460FC459
:10B3200095E8070084E807003068124C3C60B0B133
:10B33000FFF7F1FEC0B93268136823605368636099
:10B340000D480E4A4FF6FF7303800D4B40F8043F43
:10B350000021FCF771F8002818BF032004E0204604
:10B36000FFF7DBFE0028EBD0F8BD0E20FCE700BFA6
:10B37000683E0020983E0020843E002045B1020037
:10B38000A03E0020F7B5174601900E4691B1019CF2
:10B390006CB100252C46294601A8FCF76AFC18B1BF
:10B3A0003946A8B2B04701340135142DF3D12046F7
:10B3B00003B0F0BD0C46FAE70AB1FCF747BCFCF756
:10B3C0004EBC73B50191019C06466CB100252C461C
:10B3D000294601A8FCF74DFC18B106EB44030134E3
:10B3E0009D800135142DF3D13046346002B070BD1C
:10B3F0002DE9F04703888488103B8CB005460A2B62
:10B4000023D8DFE803F006422222222222222267EA
:10B410004900DFF8F080D8F80830DB430093D8F813
:10B4200004106846FCF751FC009901A8FFF7C9FF1A
:10B430000DF108090027019B9F4209D3132C14D951
:10B44000294AF0210420FBF7A3FE0CB0BDE8F087E9
:10B4500039F802AB00260136514608EB8600FCF7AE
:10B46000FEFB1E2EF7D10137E5E720482146FCF709
:10B47000EDFB1F482146FCF7E9FBEB7B022BE4D1F7
:10B480001C482146FCF7E2FBDFE7184821460CB0D8
:10B49000BDE8F047FCF7E3BB027A17483F2A4FEAC2
:10B4A0001215214694BF00220122FFF785FF022DCD
:10B4B00094BF0022012211482146FFF77DFF012D94
:10B4C0000F4894BF0022012221460CB0BDE8F0478E
:10B4D000FFF772BF037A002BB7D1427A0648C2F356
:10B4E000C0022146F1E700BF34DD0200C83E002063
:10B4F000C43E0020CC3E0020D83E0020D43E002098
:10B50000D03E0020C03E00201328014602D8024849
:10B51000FCF7AFBB00207047C43E002010B50446C6
:10B52000FFF7F2FF002814BF2046142010BD0000D2
:10B53000034B9B680A4601461846FFF723BF00BF2E
:10B54000C03E002070B50546164608460AB90E20D2
:10B5500070BD00231360002DF9D02B68002BF6D0AE
:10B56000EB8813F003040ED1FFF7D8FFC0B2142804
:10B570000BD02B7983420AD9EA882B6800FB023072
:10B5800030602046E4E70720E2E70520E0E70420FA
:10B59000DEE7AADF7047002301380B70042806D8C5
:10B5A000DFE800F00306080A0C0011230B70704757
:10B5B0002123FBE73123F9E71223F7E72223F5E7FD
:10B5C000008800F0010070470088C0F34000704719
:10B5D000F0B58B7891B0012B0C4638BF01238DF864
:10B5E0000E3005460B88ADF80C3000211646684633
:10B5F000032201F0C1F9607C6946FFF7CCFFA07C13
:10B600000DF10101FFF7C7FFE27B237B217D43EAB8
:10B61000C203227C43EA02139DF80220002922F093
:10B62000190203F0190314BF02210121134361F32E
:10B6300042031C22002109A88DF8023001F09CF978
:10B64000637B13F0300F15D002AF03220021384680
:10B6500001F092F9E07C0DF10901FFF79CFF112345
:10B660008DF808309DF80A300E97012262F34203EC
:10B670008DF80A30637B8DF824301422A37B8DF87B
:10B680002530002104A801F077F903AB0493A388C7
:10B69000ADF81C30A368CDF814D01BB1E288ADF82A
:10B6A00018200893A369002B31D001AF0322002199
:10B6B000384601F061F9A3691A88ADF82C205A8840
:10B6C000ADF82E205A680D97187B0A923946FFF77D
:10B6D00062FFA3690DF10501587BFFF75CFFA369C9
:10B6E0009A7A197A41EAC201DA7A9B7B41EA02111D
:10B6F0009DF80620002B01F0190122F0190214BF59
:10B7000002230123114363F342018DF80610E3691C
:10B7100003B10C93334604AA09A92846FFF739FF61
:10B7200011B0F0BD90DF7047A5DF7047B5DF7047FF
:10B730007FB5204B204CE41AE40824040E4603464F
:10B740000A4605461D4944F00400FBF75EF9002354
:10B750006A4602A92846ADF80860ADF80A60ADF85F
:10B760000C30ADF80E300093ADF80430FFF7DAFF7F
:10B770000646D8B1FCF7AAFE44F00104034610497E
:10B780002A462046FBF741F9BDF80020BDF80230FB
:10B7900052EA030103D00B492046FBF736F9BDF806
:10B7A00004201AB108492046FBF726F9304604B0B8
:10B7B00070BD00BF44D1020094D102007FDD0200C1
:10B7C000AEDD0200F8DD020037DE020080B14FF08E
:10B7D000F7130360FB230371F723C380172303814F
:10B7E00041F6FB3200230161438182811846704794
:10B7F0000E20704730B1A1F11703E02B04D801806F
:10B80000002070470E207047072070472DE9F04751
:10B81000868886B005460C46002E40F038810388A5
:10B82000242B00F0D68024D8112B00F0A180232BEC
:10B8300000F00881102B5ED0A37A002B00F0278146
:10B84000E1880020FFF770FF0346002840F00D81DB
:10B850009048914D91492D1A4FF48072ED08628104
:10B860002D04E28845F0040006B0BDE8F047FBF780
:10B87000CCB83A2B00F08580552BDDD1854B864D19
:10B88000C7888749ED1AED082D0445F004003B46B2
:10B8900032460390FBF7B9F8E38882490398A67211
:10B8A000172F3A4638BF17229A4228BF1A462281DC
:10B8B0000096FBF7B4F8E1883046FFF737FF38B160
:10B8C000FCF704FE7849024645F00100FBF794F8C6
:10B8D000E27A002AB0D12369002BADD040F677215F
:10B8E000ADF812202289ADF81010ADF8142004A98B
:10B8F00020469847A0E7C37B0A790A73012B21D021
:10B90000022B22D0E2882389934212D2614B624DEE
:10B910006649ED1AED082D0445F004063046002373
:10B92000FBF773F8E1880020FFF7FEFE78B90123EA
:10B93000E372217B637B8B42BFF47EAF0020FFF775
:10B94000F7FE79E70B88E380DCE74B88FBE71128FB
:10B9500007D101235649A37200223046FBF74CF869
:10B96000E7E7FCF7B3FD5349024645F00100F5E770
:10B97000F723CB8017230B8141F6FB334E818B815C
:10B980005AE74289CB8844489A4228BF1A46414B1D
:10B99000C01A172A4FEAD00038BF172200040A81C4
:10B9A0003346454940F00400FBF72FF823696BB19B
:10B9B000E27A5AB140F67722ADF810202289ADF82C
:10B9C0001260ADF8142004A9204698470023638133
:10B9D00032E7B0F80890B0F80AA08789B0F80E8076
:10B9E000027A2C4B2C484A73C01AC0080004334614
:10B9F00040F0040031490390FBF707F83049039801
:10BA00005246FAF7F9FF2F4903984A46FAF7F4FF2E
:10BA10002D4903984246FAF7EFFF2C4903983A461E
:10BA2000FAF7EAFF2369002B3FF406AF4DF67A22BE
:10BA3000ADF81020627B8DF81560ADF812608DF8BE
:10BA4000142054E7077A134B13482149C01AC00841
:10BA5000000440F004003B463246FAF7D6FF217B53
:10BA6000A888B94228BF394669E711280FD0FCF7EA
:10BA70002DFD094B0F49024606481B1ADB081B0423
:10BA800043F0010006B0BDE8F047FAF7B5BF06B0D5
:10BA9000BDE8F08744D1020094D10200E0E002004A
:10BAA00088DF0200C2DF020001E002008DDE02003A
:10BAB000CADE02001CDF02004DDF020030E002009F
:10BAC0005FE0020071E0020083E0020093E0020008
:10BAD000A3E00200B0DF704766DF704710B50021B9
